{
  "$schema": "../rpc-schema-draft.json",
  "type": "object",
  "additionalProperties": false,
  "rpc": "listtransactions",
  "title": "Command to get the list of transactions that was stored in the wallet.",
  "description": [
    "The **listtransactions** command returns transactions tracked in the wallet. This includes deposits, withdrawals and transactions related to channels. A transaction may have multiple types, e.g., a transaction may both be a close and a deposit if it closes the channel and returns funds to the wallet."
  ],
  "categories": [
    "readonly"
  ],
  "request": {
    "required": [],
    "properties": {}
  },
  "response": {
    "required": [
      "transactions"
    ],
    "properties": {
      "transactions": {
        "type": "array",
        "items": {
          "type": "object",
          "additionalProperties": false,
          "required": [
            "hash",
            "rawtx",
            "blockheight",
            "txindex",
            "locktime",
            "version",
            "inputs",
            "outputs"
          ],
          "properties": {
            "hash": {
              "type": "txid",
              "description": [
                "The transaction id."
              ]
            },
            "rawtx": {
              "type": "hex",
              "description": [
                "The raw transaction."
              ]
            },
            "blockheight": {
              "type": "u32",
              "description": [
                "The block height of this tx."
              ]
            },
            "txindex": {
              "type": "u32",
              "description": [
                "The transaction number within the block."
              ]
            },
            "locktime": {
              "type": "u32",
              "description": [
                "The nLocktime for this tx."
              ]
            },
            "version": {
              "type": "u32",
              "description": [
                "The nVersion for this tx."
              ]
            },
            "inputs": {
              "type": "array",
              "description": [
                "Each input, in order."
              ],
              "items": {
                "type": "object",
                "additionalProperties": false,
                "required": [
                  "txid",
                  "index",
                  "sequence"
                ],
                "properties": {
                  "txid": {
                    "type": "txid",
                    "description": [
                      "The transaction id spent."
                    ]
                  },
                  "index": {
                    "type": "u32",
                    "description": [
                      "The output spent."
                    ]
                  },
                  "sequence": {
                    "type": "u32",
                    "description": [
                      "The nSequence value."
                    ]
                  }
                }
              }
            },
            "outputs": {
              "type": "array",
              "description": [
                "Each output, in order."
              ],
              "items": {
                "type": "object",
                "additionalProperties": false,
                "required": [
                  "index",
                  "amount_msat",
                  "scriptPubKey"
                ],
                "properties": {
                  "index": {
                    "type": "u32",
                    "description": [
                      "The 0-based output number."
                    ]
                  },
                  "amount_msat": {
                    "type": "msat",
                    "description": [
                      "The amount of the output."
                    ]
                  },
                  "scriptPubKey": {
                    "type": "hex",
                    "description": [
                      "The scriptPubKey."
                    ]
                  }
                }
              }
            }
          }
        }
      }
    }
  },
  "errors": [
    "On failure, one of the following error codes may be returned:",
    "",
    "- -32602: Error in given parameters."
  ],
  "author": [
    "Vincenzo Palazzo <<vincenzo.palazzo@protonmail.com>> wrote the initial version of this man page,",
    "but many others did the hard work of actually implementing this rpc command."
  ],
  "see_also": [
    "lightning-newaddr(7)",
    "lightning-listfunds(7)"
  ],
  "resources": [
    "Main web site: <https://github.com/ElementsProject/lightning>"
  ],
  "examples": [
    {
      "request": {
        "id": "example:listtransactions#1",
        "method": "listtransactions",
        "params": {}
      },
      "response": {
        "transactions": [
          {
            "hash": "3db3afd388d3b5118943dab8d759e0b5adbf2dd35147b74d3947fffbfe416596",
            "rawtx": "02000000000101cc2e293caa30d7f40ebc4a787f2b0ed7d37e1bf054e0046e0f15e1a50e0213b40000000000fdffffff01eb11310100000000160014c9096d43f408ea526020262ccdad7c8516b92a810140834484494b5a0f6cc65fdb50b9f7dbabb593b8ed10316da67005908bb024e2b42fa48d8defc52b86a870af8bd95b8b88f5dcb54d0a8451e184213a063a08deb100000000",
            "blockheight": 0,
            "txindex": 0,
            "locktime": 0,
            "version": 2,
            "inputs": [
              {
                "txid": "b413020ea5e1150f6e04e054f01b7ed3d70e2b7f784abc0ef4d730aa3c292ecc",
                "index": 0,
                "sequence": 4294967293
              }
            ],
            "outputs": [
              {
                "index": 0,
                "amount_msat": 19993067000,
                "scriptPubKey": "0014c9096d43f408ea526020262ccdad7c8516b92a81"
              }
            ]
          },
          {
            "hash": "b9f1460d5ee44597bde8d797ad837966f5c6240e27ab6c42c83ee4dc211da7d8",
            "rawtx": "02000000000101c63252a483c478fa05a428ec82f3154b4d87b23f9a28a58608c4262fe586d5270000000000c184f280024a010000000000002200208d273ff93e5fdb05de6895022d5edca0d6944cd2057beb2ef8e403caa339b255c0a0eb0b00000000220020051d982ac32f5e408953a521460cddf9a31ba86d4b81a1a63e76e8b44806546b0400473044022056b81846aa027327b8e3c652540f9aef2b9504d5c26b2bec647b21f4dc9b2a23022008a1440802a4a4500b9e23adb8665a6f9ccade20d98367b6f508d849c5169ec00147304402201cf22e7a70a0faac8f126048692576e7608e5ca89358e79551e0358743bf20cd02201c8d445cb3c5b2e295e7ea88facf535ed8af2e0385c434168ee405e301c9246d014752210248fdf258e62b2d58c89663148c205feec42e15954c8c28ea8fe4d1d61293caf22102a75fc9b044b267e4314d018587e9855ac2ae817f3a64835d194bc99959a79f4d52aebfdabe20",
            "blockheight": 0,
            "txindex": 0,
            "locktime": 549378751,
            "version": 2,
            "inputs": [
              {
                "txid": "channeltxid410000410000410000410000410000410000410000410000410000",
                "index": 0,
                "sequence": 2163377345
              }
            ],
            "outputs": [
              {
                "index": 0,
                "amount_msat": 330000,
                "scriptPubKey": "00208d273ff93e5fdb05de6895022d5edca0d6944cd2057beb2ef8e403caa339b255"
              },
              {
                "index": 1,
                "amount_msat": 199991488000,
                "scriptPubKey": "0020051d982ac32f5e408953a521460cddf9a31ba86d4b81a1a63e76e8b44806546b"
              }
            ]
          },
          {
            "hash": "835283ec4b1b9d99f7afc9d1fddbc17d1b54f5116347407c17d5ad6bfff6b998",
            "rawtx": "02000000000101bc9d62dc45de462db8aa5bf0abe78108e7b3ec94d392db5d35b31803ddb8b6ca020000000016138d80024a01000000000000220020758ab100d5eb915e0eaf558a925b40d429c5a01ebb26a1d410461ec10d9c4b6a354aef11000000002200206fa9bfaaa026091cfb34f8df619a974c9a681f3f21869805a83e69c09b949a4d040047304402200fbd1818307b555e74736d8d4f6336abb0b0156e07dce949657cd0919646858b02205af29a3e0528f1f4adf411197ff74463810bb6ad226a0de09e44deb2a312173b01473044022009d057c4dd9a920239560e293bc1770a1d676ca034ba18ba7aea725e0abc1dc702201db831f6074e006ba535cfb503c5d667a4dd905750111ef51cdcace56f3f45120147522102f2f2eaac321a9f2be81dfc5d5b09b481fd1e3947b8de8bb426cb67ccf0aa475a210334650d3c6997bbb0ccfedcabc5364d89a43e5f7bd3a548e56800d9dcfe6a9b5652aeaf939c20",
            "blockheight": 0,
            "txindex": 0,
            "locktime": 547132335,
            "version": 2,
            "inputs": [
              {
                "txid": "channeltxid01050000500005000050000500005000050000500005000050000",
                "index": 2,
                "sequence": 2156729110
              }
            ],
            "outputs": [
              {
                "index": 0,
                "amount_msat": 330000,
                "scriptPubKey": "0020758ab100d5eb915e0eaf558a925b40d429c5a01ebb26a1d410461ec10d9c4b6a"
              },
              {
                "index": 1,
                "amount_msat": 300894773000,
                "scriptPubKey": "00206fa9bfaaa026091cfb34f8df619a974c9a681f3f21869805a83e69c09b949a4d"
              }
            ]
          },
          {
            "hash": "f1743bb6e1d46b99ecd9f3e1a773a7ad8edf63facdba4eb79c6c94b210068fcf",
            "rawtx": "02000000000101bc9d62dc45de462db8aa5bf0abe78108e7b3ec94d392db5d35b31803ddb8b6ca0000000000b324a880024a010000000000002200207884dda4442758b34a50c24876315d127fb0a0180b447f0eb66df91531f6ef202562000000000000220020d17caf4f7d164e08ee70b4dcfa633b191b84156067babd435237dc07df6db1cb0400473044022011a138e881af6094e31a3f91507818402da5199d9dbd6deada828fa124ef259202207eaa8d0879199d47970aaeec3c245de6ef3a6fe7d9959abb26555e27703df34101473044022011bb8ca0ee42ee3936cead8e2aa2b96bf0abc3e05ecec172f09a749892d22af302205ef7a74e650c863a031016a3cde15f78b5657a4bbef5305e043a550a055076110147522102aa0272607ae73d86191e375e0239afb53d41044d47c908dcb6cd0b8ddb2ab0632102c9c19e9f4dacbf34bd2a3fbd98726050bd4a03a8c4b5eb56e936174f8063bf2a52ae6a2e3a20",
            "blockheight": 0,
            "txindex": 0,
            "locktime": 540683882,
            "version": 2,
            "inputs": [
              {
                "txid": "channeltxid01050000500005000050000500005000050000500005000050000",
                "index": 0,
                "sequence": 2158503091
              }
            ],
            "outputs": [
              {
                "index": 0,
                "amount_msat": 330000,
                "scriptPubKey": "00207884dda4442758b34a50c24876315d127fb0a0180b447f0eb66df91531f6ef20"
              },
              {
                "index": 1,
                "amount_msat": 25125000,
                "scriptPubKey": "0020d17caf4f7d164e08ee70b4dcfa633b191b84156067babd435237dc07df6db1cb"
              }
            ]
          },
          {
            "hash": "ee23b165a0ad99d0ff974213e9726c5d98fcd8adf1923550d7d2d9094645a054",
            "rawtx": "02000000000101bc9d62dc45de462db8aa5bf0abe78108e7b3ec94d392db5d35b31803ddb8b6ca0300000000daa05780024a01000000000000220020115d033d951e801473df88da23d089b7beb11c9b7dfe68eb7d8a0d8f39c011ff153b000000000000220020cb9d979e753674d17ee6e071cf2347474ebc85a3ddeae6cff50c6c470494022b0400473044022048b8817e7aabbb940a6fd45bb769525f3e987dee82ac31cb554afd3cdacb46d9022063fddaa35b7d650f1866fdf909b6a6417b1ac295291b86fd42f2c0693c80e06a0147304402206ba6961b8267697957d7927e8b0add3a9f134734b989ff7386f82a8f99e7a23402203f1b5f1bdc0402fb18719db853baaa97dc35be6bdee89e872107450be21306f00147522102f52c0210d5b05d38a0c01f316be27ad07fadb10015f497accfa78b7c3cdb5cb621038f2a5514a8fd540d306215ea47cded68140a4d1346f0b8dc35b4261701f7ec6952aeea0bb220",
            "blockheight": 0,
            "txindex": 0,
            "locktime": 548539370,
            "version": 2,
            "inputs": [
              {
                "txid": "channeltxid01050000500005000050000500005000050000500005000050000",
                "index": 3,
                "sequence": 2153226458
              }
            ],
            "outputs": [
              {
                "index": 0,
                "amount_msat": 330000,
                "scriptPubKey": "0020115d033d951e801473df88da23d089b7beb11c9b7dfe68eb7d8a0d8f39c011ff"
              },
              {
                "index": 1,
                "amount_msat": 15125000,
                "scriptPubKey": "0020cb9d979e753674d17ee6e071cf2347474ebc85a3ddeae6cff50c6c470494022b"
              }
            ]
          },
          {
            "hash": "e0953e787f2abc60562e6ad78a9bbf4cbcd88f77737031ed1d7548bfb9e0021e",
            "rawtx": "020000000001019fd127d32a4d9292c19c589abf627bdd7f12c91d500a23d95bfcf6715e49b6d80000000000b23e8680024a01000000000000220020c0c0eb007639757969d6cb6f4a562596804037bd89882269f38574981f590d1245b000000000000022002032f7cf94bbc885dc32bd9444e5943ca38b40669269dfe8929163104d864a3aa6040047304402201c78827f195c1b1fb2e80d06b2794807ccee60b8ac14ff15837e6db81d3fbfdc02202993f40b293d3c6718914090dc307dc55710955a95a48a82008aa500b74ff59d0147304402202b8fa595d25d8eae9a6edd24358cd1be8f5fddfe10b88216a992ec8b299452d902205547d12d0277a1a50ef7886373b4bd7728738a6b42cb417eb84849d3a55c0f420147522102331879114f4a701a7d448286c11e54999754f9c85d4de4354b83c0496079e6632103b4fdbaf0f285ae4492f88b1b22af0d2a41c49817305bed84cece23ea0a6364ae52aeff440720",
            "blockheight": 0,
            "txindex": 0,
            "locktime": 537347327,
            "version": 2,
            "inputs": [
              {
                "txid": "channeltxid02060000600006000060000600006000060000600006000060000",
                "index": 0,
                "sequence": 2156281522
              }
            ],
            "outputs": [
              {
                "index": 0,
                "amount_msat": 330000,
                "scriptPubKey": "0020c0c0eb007639757969d6cb6f4a562596804037bd89882269f38574981f590d12"
              },
              {
                "index": 1,
                "amount_msat": 45125000,
                "scriptPubKey": "002032f7cf94bbc885dc32bd9444e5943ca38b40669269dfe8929163104d864a3aa6"
              }
            ]
          },
          {
            "hash": "f7e15897b041b8c524f038a3ea9277c0e7cc5bba849e671732493a917daaa7ad",
            "rawtx": "0200000000010143accf23474f0f9db1ae5368bfbf25ec4d7e06de5cc3b5e3e153b4f6ff1277ac0000000000fdffffff0271c4d4280100000017a914e01a7c6cf76ea33b3ffc6e4d98dd8ae3865c9e8d87002d31010000000017a914655728f36cfe36d01aa50d3236704469f84a5540870247304402206e8b9ef94b1dfd00033fed30b75af469f33c6686f6884e248518640ac14147a10220232dcf5a4ee33598058fe1e09c5336158db3f16f53af183e8b70955dd0a517dc012103b7f40a9a0b287c247c2206bc5f32bcb01d86f36735178a1e2b84028eb6509bcc07000000",
            "blockheight": 102,
            "txindex": 1,
            "locktime": 7,
            "version": 2,
            "inputs": [
              {
                "txid": "ac7712fff6b453e1e3b5c35cde067e4dec25bfbf6853aeb19d0f4f4723cfac43",
                "index": 0,
                "sequence": 4294967293
              }
            ],
            "outputs": [
              {
                "index": 0,
                "amount_msat": 4979999857000,
                "scriptPubKey": "a914e01a7c6cf76ea33b3ffc6e4d98dd8ae3865c9e8d87"
              },
              {
                "index": 1,
                "amount_msat": 20000000000,
                "scriptPubKey": "a914655728f36cfe36d01aa50d3236704469f84a554087"
              }
            ]
          },
          {
            "hash": "b413020ea5e1150f6e04e054f01b7ed3d70e2b7f784abc0ef4d730aa3c292ecc",
            "rawtx": "02000000000101ada7aa7d913a493217679e84ba5bcce7c07792eaa338f024c5b841b09758e1f70100000017160014d6b969d36dffdad9869193f663ee480dfdc73488fdffffff0135143101000000002251206c27e1956acfa61e68292c80908880e813450f754132e8a2ac471a86bf1326b50247304402200f231a62849c2cdabe0b4b22ab4dadefe770e30394653bf734df43dc10e8b44e02201aefd3a6ab0f25f6aef04ab19757cfae78ff7a0702892b98bcbf35b38b58f932012102b9c0c6844e12a531c968e55c55078ec16d9bf76be9290fd87d1cca72b4839a1766000000",
            "blockheight": 103,
            "txindex": 1,
            "locktime": 102,
            "version": 2,
            "inputs": [
              {
                "txid": "f7e15897b041b8c524f038a3ea9277c0e7cc5bba849e671732493a917daaa7ad",
                "index": 1,
                "sequence": 4294967293
              }
            ],
            "outputs": [
              {
                "index": 0,
                "amount_msat": 19993653000,
                "scriptPubKey": "51206c27e1956acfa61e68292c80908880e813450f754132e8a2ac471a86bf1326b5"
              }
            ]
          },
          {
            "hash": "02ae15efe8c8ba2a152f93a4430a146b1684b3578b3a3e8d1ab0ee5613e6b411",
            "rawtx": "02000000000101ada7aa7d913a493217679e84ba5bcce7c07792eaa338f024c5b841b09758e1f70000000017160014070adbcc3bb78cad1cf0dbd94273b008d8c2394dfdffffff0200c2eb0b00000000160014661c23b790dd3491373af0b1d8bed0877d5cde22cd01e91c01000000160014853cb6b59f321636a4511003a8df399dd3419a5702473044022012a651e12c11bff8ded933b83190c60d93ddb5d5bb7d5db532978d555f77aa7e022023d20ceea86eb0ed2c3c5f36fa9b531d465fada6da3ff27684cf4a02490ecf8d01210275371ac153484ebeffa50a163b42abe71566e20f6c59faa453e99a7b65eaaa2366000000",
            "blockheight": 103,
            "txindex": 2,
            "locktime": 102,
            "version": 2,
            "inputs": [
              {
                "txid": "f7e15897b041b8c524f038a3ea9277c0e7cc5bba849e671732493a917daaa7ad",
                "index": 0,
                "sequence": 4294967293
              }
            ],
            "outputs": [
              {
                "index": 0,
                "amount_msat": 200000000000,
                "scriptPubKey": "0014661c23b790dd3491373af0b1d8bed0877d5cde22"
              },
              {
                "index": 1,
                "amount_msat": 4779999693000,
                "scriptPubKey": "0014853cb6b59f321636a4511003a8df399dd3419a57"
              }
            ]
          },
          {
            "hash": "3bfe98c6530387b25766f3786b29e85ef3f0c5c36be64a6c0d1b4f8b53111491",
            "rawtx": "0200000000010172616a344d4ef056511a62b2b5c380356d9250fe735262b9d6d0123fe81088e60100000000fdffffff028c721bed00000000160014a1803e1a741e1d6a6d8b5ae0e14c0e977a2a2cc280841e00000000001600149fb67bfcefee6cb7db4c7e55d9c6bfd749e31d1e0247304402200d813bc67e04d56e15c76cb93813ba28b0deb4b59947dbf0c8f1df0e6e55d12802206a27ba6c1c2afcc863ae74d817042a1f506dfadf35a2e513282f48a511d9dc250121032450f70cb707d06db27ea7de30d87bce46f8178d28a34b8024e824f46e1a9dce54000000",
            "blockheight": 108,
            "txindex": 1,
            "locktime": 84,
            "version": 2,
            "inputs": [
              {
                "txid": "e68810e83f12d0d6b9625273fe50926d3580c3b5b2621a5156f04e4d346a6172",
                "index": 1,
                "sequence": 4294967293
              }
            ],
            "outputs": [
              {
                "index": 0,
                "amount_msat": 3977998988000,
                "scriptPubKey": "0014a1803e1a741e1d6a6d8b5ae0e14c0e977a2a2cc2"
              },
              {
                "index": 1,
                "amount_msat": 2000000000,
                "scriptPubKey": "00149fb67bfcefee6cb7db4c7e55d9c6bfd749e31d1e"
              }
            ]
          },
          {
            "hash": "5cf9e2b10d8db91a32011967c88844f1ec7ca61f3abad0cff2939efb680671d2",
            "rawtx": "02000000000101911411538b4f1b0d6c4ae66bc3c5f0f35ee8296b78f36657b2870353c698fe3b0100000000fdffffff02012f0f000000000022512035f1184f6b470c9df347da62c4b28e7ec9ee10b220bac3accd22209def0036ea40420f00000000002200205b8cd3b914cf67cdd8fa6273c930353dd36476734fbd962102c2df53b90880cd0247304402205055c772b4d94d331937aa8c5799570fda91037636c71c36d937b1c878caa5c70220381a34d2b3eecadb443ea5dce8f68591063d4ac74763e60663e7bac0d2c2608c01210328cc8fc978e209f1695fa5b5655061db1aab2311b524176945bf1015ef2d4b896c000000",
            "blockheight": 109,
            "txindex": 1,
            "locktime": 108,
            "version": 2,
            "inputs": [
              {
                "txid": "3bfe98c6530387b25766f3786b29e85ef3f0c5c36be64a6c0d1b4f8b53111491",
                "index": 1,
                "sequence": 4294967293
              }
            ],
            "outputs": [
              {
                "index": 0,
                "amount_msat": 995073000,
                "scriptPubKey": "512035f1184f6b470c9df347da62c4b28e7ec9ee10b220bac3accd22209def0036ea"
              },
              {
                "index": 1,
                "amount_msat": 1000000000,
                "scriptPubKey": "00205b8cd3b914cf67cdd8fa6273c930353dd36476734fbd962102c2df53b90880cd"
              }
            ]
          },
          {
            "hash": "49cf7cabb558da50a1ad65aeeaea49aa54cc35ffa6da0009f39c22181879b28a",
            "rawtx": "02000000000101e7c3efbe58b27a9554d880544ed63a36cdb50fe2278ac9cf09213e7ffb8306840000000000fdffffff08e80300000000000016001483bad0f86037b6f1194b4a6e2d813d9c1a30a730e8030000000000002251202f843ba0c8de9d0c41a63a25d4cab22032be4fabf24931dab82214316be218cae803000000000000160014a43b821a9790f880e113a395b717a0f354b9d9c6583408000000000022512000dea9b3b059044ed411fe24d7bff4d1b3bbdd09a16034a096a4b175f7f5ac0fe803000000000000160014d1dc90a7bb3af91ed69e933dc38f555b580fad09e80300000000000016001407905c6189c1ae8aff12566b03f35ff516d17e84e803000000000000160014dfadaae18d57e4ef50e15b863d9e648bf9af67b1e8030000000000002251200978ea47f31ad6561d96ceee14e85192726536c4e1e59d09f217f3b5762b06300247304402204a6b9c62c3ed028deb660fb3371ac6dcbfcd0af178b1dbb2dee115e0f77b60d6022073d02e9a539ef9de71b2ed97c2a58a643a17c3061332d685675f459ccbac6cd30121022ca25964cb5e0e943c05f7043ab480102ba4acf33d75779a997444582b46475087000000",
            "blockheight": 140,
            "txindex": 1,
            "locktime": 135,
            "version": 2,
            "inputs": [
              {
                "txid": "txidwithdraw2191000910009100091000910009100091000910009100091000",
                "index": 0,
                "sequence": 4294967293
              }
            ],
            "outputs": [
              {
                "index": 0,
                "amount_msat": 1000000,
                "scriptPubKey": "001483bad0f86037b6f1194b4a6e2d813d9c1a30a730"
              },
              {
                "index": 1,
                "amount_msat": 1000000,
                "scriptPubKey": "51202f843ba0c8de9d0c41a63a25d4cab22032be4fabf24931dab82214316be218ca"
              },
              {
                "index": 2,
                "amount_msat": 1000000,
                "scriptPubKey": "0014a43b821a9790f880e113a395b717a0f354b9d9c6"
              },
              {
                "index": 3,
                "amount_msat": 537688000,
                "scriptPubKey": "512000dea9b3b059044ed411fe24d7bff4d1b3bbdd09a16034a096a4b175f7f5ac0f"
              },
              {
                "index": 4,
                "amount_msat": 1000000,
                "scriptPubKey": "0014d1dc90a7bb3af91ed69e933dc38f555b580fad09"
              },
              {
                "index": 5,
                "amount_msat": 1000000,
                "scriptPubKey": "001407905c6189c1ae8aff12566b03f35ff516d17e84"
              },
              {
                "index": 6,
                "amount_msat": 1000000,
                "scriptPubKey": "0014dfadaae18d57e4ef50e15b863d9e648bf9af67b1"
              },
              {
                "index": 7,
                "amount_msat": 1000000,
                "scriptPubKey": "51200978ea47f31ad6561d96ceee14e85192726536c4e1e59d09f217f3b5762b0630"
              }
            ]
          },
          {
            "hash": "d5e627cc581d27716c6a98820dac6ef29d702f95de882ed5fd81cc64fc6c15f3",
            "rawtx": "020000000001015ddd7ce5c9e808b4422befdd65bb5bb4b39cec6528f69827feb74088ea6cefd10100000000fdffffff03050d000000000000160014d55c493983db651e10477455b1d408c31e7e9e3154591e00000000002251202b5dd0613b6e534f572dbcf4311b66e6cc8bb07e285928ddb6fa5791e4737874ae080000000000001600143d43d226bcc27019ade52d7a3dc52a7ac1be28b8024730440220790f05a4d94d9648324c2f88be8b9d5451676152a7c616af09ddddabc0ce51ab02200e1c8ddf935a115030eb2211ea238605112733e8e467af435b3ccdfada5a5a7101210330a75acaed258be6bc02da9fab058abbe0e770caceb7c6496eaaea7014c3d39b87000000",
            "blockheight": 140,
            "txindex": 2,
            "locktime": 135,
            "version": 2,
            "inputs": [
              {
                "txid": "d1ef6cea8840b7fe2798f62865ec9cb3b45bbb65ddef2b42b408e8c9e57cdd5d",
                "index": 1,
                "sequence": 4294967293
              }
            ],
            "outputs": [
              {
                "index": 0,
                "amount_msat": 3333000,
                "scriptPubKey": "0014d55c493983db651e10477455b1d408c31e7e9e31"
              },
              {
                "index": 1,
                "amount_msat": 1988948000,
                "scriptPubKey": "51202b5dd0613b6e534f572dbcf4311b66e6cc8bb07e285928ddb6fa5791e4737874"
              },
              {
                "index": 2,
                "amount_msat": 2222000,
                "scriptPubKey": "00143d43d226bcc27019ade52d7a3dc52a7ac1be28b8"
              }
            ]
          },
          {
            "hash": "27d586e52f26c40886a5289a3fb2874d4b15f382ec28a405fa78c483a45232c6",
            "rawtx": "02000000000101e3f5e31c8c2c400da0d71ac9797e25a2d37f2cfbc50c65c50c2cdb7b5e4fbb660100000000fdffffff01cbb3eb0b00000000220020752dd5af63b98ff64fedf94683b0306c43f6eec74fbfe917639735b305e1b6d902473044022063c9f49e97b256a9cf331d03cc6d45bf60869c52846d212a63f67e1c605c1e6902201e1e90e908b8f333d64caf95837dee0c5665c1ca7d07833e7dd639972c1c2c7e0121024740cce0e548f4ffe80c9914e43444d8e66ee8991dc9d93ec56dff4c56b933159a000000",
            "blockheight": 155,
            "txindex": 2,
            "locktime": 154,
            "version": 2,
            "inputs": [
              {
                "txid": "66bb4f5e7bdb2c0cc5650cc5fb2c7fd3a2257e79c91ad7a00d402c8c1ce3f5e3",
                "index": 1,
                "sequence": 4294967293
              }
            ],
            "outputs": [
              {
                "index": 0,
                "amount_msat": 199996363000,
                "scriptPubKey": "0020752dd5af63b98ff64fedf94683b0306c43f6eec74fbfe917639735b305e1b6d9"
              }
            ]
          },
          {
            "hash": "c9fc4b0d3ff3f6d64976e9f23442b843d99af7d01dbb60fcb742fba857a97210",
            "rawtx": "02000000000101ccbd5415d988a607bec8f15da6eeb4ee11b5755e9fc903e3586ee4120d4628620000000000fdffffff0200e1f5050000000016001406a704367e9af9d1e305d1f0280515f824d5c7627c30fecc00000000160014badd2fff36df7bcd659fe18aac847c1b66fac64202473044022079a81756f7c41454d9579312943ad690853c90be9088ba875c3d44bf702b4be00220364e87c56fb750487c3293d93ad0fb42e5c7363c01617e1826fea6bfa6bed402012103eb817f10e7176c49b54b750cbc704639359ca4266bc4aa8b1b33b07623a410249a000000",
            "blockheight": 155,
            "txindex": 3,
            "locktime": 154,
            "version": 2,
            "inputs": [
              {
                "txid": "utxo010101010101010101010101010101010101010101010101010101010101",
                "index": 0,
                "sequence": 4294967293
              }
            ],
            "outputs": [
              {
                "index": 0,
                "amount_msat": 100000000000,
                "scriptPubKey": "001406a704367e9af9d1e305d1f0280515f824d5c762"
              },
              {
                "index": 1,
                "amount_msat": 3439210620000,
                "scriptPubKey": "0014badd2fff36df7bcd659fe18aac847c1b66fac642"
              }
            ]
          },
          {
            "hash": "984dbe09f4296b431f9acdafb7ce864da351ac29cf7323d5705812483be297cc",
            "rawtx": "02000000000101c63252a483c478fa05a428ec82f3154b4d87b23f9a28a58608c4262fe586d5270000000000ffffffff0101abeb0b00000000225120d2cf398fe62961599e769a8aa80430c9854dc04fe198aacceca063d76bafe8f70400473044022039762bd4b2b2f14e5a6afded73a716a850e924d202bc0f4fbeb1c68bd8697a6f022057b58686a35c1a9ce5a522c69d8abe27059e46438ba5cf9803e2c265f052d934014730440220133549b5c0bb5517cdaa08afa25f9e3c5dbd5528c55c39857a826faed05f9a320220793d5ad9e22dc8a3518a6c1c281f86bfc650cc18df1c8eb146681bac16dac2bd014752210248fdf258e62b2d58c89663148c205feec42e15954c8c28ea8fe4d1d61293caf22102a75fc9b044b267e4314d018587e9855ac2ae817f3a64835d194bc99959a79f4d52ae00000000",
            "blockheight": 155,
            "txindex": 5,
            "locktime": 0,
            "version": 2,
            "inputs": [
              {
                "txid": "channeltxid410000410000410000410000410000410000410000410000410000",
                "index": 0,
                "sequence": 4294967295
              }
            ],
            "outputs": [
              {
                "index": 0,
                "amount_msat": 199994113000,
                "scriptPubKey": "5120d2cf398fe62961599e769a8aa80430c9854dc04fe198aacceca063d76bafe8f7"
              }
            ]
          },
          {
            "hash": "cab6b8dd0318b3355ddb92d394ecb3e70881e7abf05baab82d46de45dc629dbc",
            "rawtx": "020000000001081072a957a8fb42b7fc60bb1dd0f79ad943b84234f2e97649d6f6f33f0d4bfcc90000000000fdffffff11b4e61356eeb01a8d3e3a8b57b384166b140a43a4932f152abac8e8ef15ae020000000000fdffffff8ab2791818229cf30900daa6ff35cc54aa49eaeaae65ada150da58b5ab7ccf490600000000fdfffffff3156cfc64cc81fdd52e88de952f709df26eac0d82986a6c71271d58cc27e6d50200000000fdffffff8ab2791818229cf30900daa6ff35cc54aa49eaeaae65ada150da58b5ab7ccf490100000000fdffffffd2710668fb9e93f2cfd0ba3a1fa67cecf14488c8671901321ab98d0db1e2f95c0000000000fdfffffff3156cfc64cc81fdd52e88de952f709df26eac0d82986a6c71271d58cc27e6d50000000000fdffffff8ab2791818229cf30900daa6ff35cc54aa49eaeaae65ada150da58b5ab7ccf490200000000fdffffff043075000000000000220020d90c23ede7b77f89f4cae93da9326ba176d158a0b65faeaede5684c3c0f7c839a86100000000000022512018ece00b736f9ed77ed3a87426643c242223e3d6116a4cd6d90946f73de2ce71405def1100000000220020f7bbe8f915381b4b9b1ca14cccbfd156eea19888550d01a5014f977e98c7fc8c204e000000000000220020369444aad3ac8c5452be625479f761587c42fbf66fecf644447daabc73c49822024730440220499981c7814da79d63b707cd1f3256c7d4b95c2027c06aec061e76f06b6a019f02201a8c1f3341521c7a032bc0ca264c948e3708bde89dc4372ace21ab0a3ebfda680121029da47016812598be384212ce15793496c0ec2176a87e81c6432dae964f87c9870247304402201269bba7890271076d5aabfaf0b44139600e6a149aec98fe15ac221dd936917002203ad253e157fb50a4639bab03682d592156aa812088b9d760e5a6f89eefa44155012103fa9c95085e42b1e5003cd1f418178c30c96e4ae77954ca0fc48c58826ff4eb0e024730440220266e4f35bddf94eaa8ddc14e5b1d609c89abd1ed461e6f6cb4006b09a8ac35ad022064d3ccd1c9ec03b1be2614f57e41e9c7362929c5ff8333f75f873cf631ee82eb012103d034f788f410c2ec2d89d161df3c3715f965248aa53eace463d10eca443eb1f202473044022006976325a1a664c8e6365a074c1bad028db274c4d29d0f87f8f5f8170b2746f5022041616875a1e889bbd7f81b21d07625160cb8d368f30374f04e5f7e902d03a80a0121028a599168d3c97debc71bc66e6270ecf054f300d888309ba05471a482175dd93001405d6382337dc47e9a1b3b3471ad20f1d23dca2edd7e687adc772a8df70ba98b981d80acfd87ec9e007691b71498a2e310e51e340c537112d5ea27b62ea3d39e6b014046f829ef128818f9a181ff528817e21af2fc9fc16d0bb57069d3b21f3364b330842fef60d67ce5cf1282b8464e5dfecc9cd8a60a1395213cf76db77dc6c9f65602473044022003c42795b31cfdcf2ecbb6b540e4c589ad5cbb299ba5956097fd3437aee15ed4022012e483f01b8e62fb79d3c99dc2261a9d81b357f3b81fc1f01b12f7e26780409f012102272a9a25f1ffed52fab04a2cc88aeab135b53723856a8f1481c26417f88a922e024730440220075dd8ce661088bbaa6a125ffbdcb8248c493dd0614203887883b07cef999bc1022067a84ed7566ddd121308058eb3638e74e9cecb3c25b958f82a96a6f0effa667801210267f4468ffafe6f919ae871f57f09690467f494e83e0358dc64d10472f9072f4c9b000000",
            "blockheight": 156,
            "txindex": 1,
            "locktime": 155,
            "version": 2,
            "inputs": [
              {
                "txid": "c9fc4b0d3ff3f6d64976e9f23442b843d99af7d01dbb60fcb742fba857a97210",
                "index": 0,
                "sequence": 4294967293
              },
              {
                "txid": "02ae15efe8c8ba2a152f93a4430a146b1684b3578b3a3e8d1ab0ee5613e6b411",
                "index": 0,
                "sequence": 4294967293
              },
              {
                "txid": "txid5600056000560005600056000560005600056000560005600056000",
                "index": 6,
                "sequence": 4294967293
              },
              {
                "txid": "txid5500055000550005500055000550005500055000550005500055000",
                "index": 2,
                "sequence": 4294967293
              },
              {
                "txid": "txid5600056000560005600056000560005600056000560005600056000",
                "index": 1,
                "sequence": 4294967293
              },
              {
                "txid": "channeltxid120000120000120000120000120000120000120000120000120000",
                "index": 0,
                "sequence": 4294967293
              },
              {
                "txid": "txid5500055000550005500055000550005500055000550005500055000",
                "index": 0,
                "sequence": 4294967293
              },
              {
                "txid": "txid5600056000560005600056000560005600056000560005600056000",
                "index": 2,
                "sequence": 4294967293
              }
            ],
            "outputs": [
              {
                "index": 0,
                "amount_msat": 30000000,
                "scriptPubKey": "0020d90c23ede7b77f89f4cae93da9326ba176d158a0b65faeaede5684c3c0f7c839"
              },
              {
                "index": 1,
                "amount_msat": 25000000,
                "scriptPubKey": "512018ece00b736f9ed77ed3a87426643c242223e3d6116a4cd6d90946f73de2ce71"
              },
              {
                "index": 2,
                "amount_msat": 300899648000,
                "scriptPubKey": "0020f7bbe8f915381b4b9b1ca14cccbfd156eea19888550d01a5014f977e98c7fc8c"
              },
              {
                "index": 3,
                "amount_msat": 20000000,
                "scriptPubKey": "0020369444aad3ac8c5452be625479f761587c42fbf66fecf644447daabc73c49822"
              }
            ]
          },
          {
            "hash": "db1e61756ef2f55328d67945342434014774c6f45b1d8a7e17ca6f1e8f45b1ea",
            "rawtx": "020000000001011072a957a8fb42b7fc60bb1dd0f79ad943b84234f2e97649d6f6f33f0d4bfcc90100000000fdffffff02093f08c700000000160014d0bc12c5bc8024f51bc213f46c10952dcb2eaeeb00e1f5050000000016001443120e0f201f7d32d7949f4c9960fbd2d69ea45b0247304402203b3d219f2a55f5a9cd6fadd6862acd5ff950845c3d7bcd8cd6670e16732541eb02201689e72dcdefae26c1075edc7e63c858ce80f1a58877dfe50ab4f13d2c2dbae0012102c045bc3da89bf3cc2b45f3f1549c87b64d8041b9928fad2728671f33193573059b000000",
            "blockheight": 156,
            "txindex": 2,
            "locktime": 155,
            "version": 2,
            "inputs": [
              {
                "txid": "c9fc4b0d3ff3f6d64976e9f23442b843d99af7d01dbb60fcb742fba857a97210",
                "index": 1,
                "sequence": 4294967293
              }
            ],
            "outputs": [
              {
                "index": 0,
                "amount_msat": 3339206409000,
                "scriptPubKey": "0014d0bc12c5bc8024f51bc213f46c10952dcb2eaeeb"
              },
              {
                "index": 1,
                "amount_msat": 100000000000,
                "scriptPubKey": "001443120e0f201f7d32d7949f4c9960fbd2d69ea45b"
              }
            ]
          },
          {
            "hash": "4865c35d4adccaf3ce443cb98cf1ea8ff4d3ea45242aa6ee7a8ba29771de5d3c",
            "rawtx": "02000000000101bc9d62dc45de462db8aa5bf0abe78108e7b3ec94d392db5d35b31803ddb8b6ca0200000000ffffffff017654ef11000000002251208de5a3aa566cb6dc9037206bc73530ce6d7d8ea2dd1c488aec5862cb8b8e860e040047304402205c9c2bf1e2e993dd2e94d8fa5ee2ecd9492dec25538cf9879f7edebb2c0377bb02202144c2cd27c02385629d1408ff8b9a6f070c4db91440dd91a301ef134680edaa014730440220691dd227df7fd0382f8d4d365efc6b096e85249e845bcc1eeeee180206034ae502204f2a17d239404fca2990d123cd4da08206139f7538cc8d6bf0d31f9eac38c8f20147522102f2f2eaac321a9f2be81dfc5d5b09b481fd1e3947b8de8bb426cb67ccf0aa475a210334650d3c6997bbb0ccfedcabc5364d89a43e5f7bd3a548e56800d9dcfe6a9b5652ae00000000",
            "blockheight": 156,
            "txindex": 3,
            "locktime": 0,
            "version": 2,
            "inputs": [
              {
                "txid": "channeltxid01050000500005000050000500005000050000500005000050000",
                "index": 2,
                "sequence": 4294967295
              }
            ],
            "outputs": [
              {
                "index": 0,
                "amount_msat": 300897398000,
                "scriptPubKey": "51208de5a3aa566cb6dc9037206bc73530ce6d7d8ea2dd1c488aec5862cb8b8e860e"
              }
            ]
          },
          {
            "hash": "dceb4d845c5ef647d3c469a7265a677c9b6be242c8f118d7d7288f90016f843d",
            "rawtx": "02000000000101bc9d62dc45de462db8aa5bf0abe78108e7b3ec94d392db5d35b31803ddb8b6ca0000000000ffffffff01666c000000000000225120725e8a69e72d2a6d3e6661c926a16dc1228dda186d83aa3c7bd9b54cd317f29e0400473044022057287c8c34197bab2035bd9291c5fa868bda029f1210b8f5abccaac84d4047ee02202405ff5c4ab975e86ac7ba3f8af89a5e11585fefa398395c9ca94a446f94f25a01473044022023f8fed103f790e51eb61bdc6cda8208d3cea85c8f4437528ab4028d9953d888022060410c00cb83ae01dd1942313c3921a0da216952605bd9526df0fe1ff8d855610147522102aa0272607ae73d86191e375e0239afb53d41044d47c908dcb6cd0b8ddb2ab0632102c9c19e9f4dacbf34bd2a3fbd98726050bd4a03a8c4b5eb56e936174f8063bf2a52ae00000000",
            "blockheight": 156,
            "txindex": 4,
            "locktime": 0,
            "version": 2,
            "inputs": [
              {
                "txid": "channeltxid01050000500005000050000500005000050000500005000050000",
                "index": 0,
                "sequence": 4294967295
              }
            ],
            "outputs": [
              {
                "index": 0,
                "amount_msat": 27750000,
                "scriptPubKey": "5120725e8a69e72d2a6d3e6661c926a16dc1228dda186d83aa3c7bd9b54cd317f29e"
              }
            ]
          },
          {
            "hash": "2bde03626032859c4d3f23abaad9837db6c429e2e289dad47ec9e745e389f17f",
            "rawtx": "02000000000101bc9d62dc45de462db8aa5bf0abe78108e7b3ec94d392db5d35b31803ddb8b6ca0300000000ffffffff015645000000000000225120db2dec31ac965ff2ad3e392d2cf6aa76128cea0ad98d018b07bc5de2e2346bfb04004730440220295e9d4f1dafecb5a2db0782b0e2e820abd03a348a775fc3f8e2ad5f1a3b6ae7022047eaeaaafda90bced4ff5c0b329e18bbf1c4ff58d3029cb3175f337efeee16200147304402203db70229d2192cfeeacf002ce445b017f616be0120e5b121add9c8e8e1dbe3e90220505042064af9879b33ad9f74504395d8141e244d78182687bc1977e1f518ecbb0147522102f52c0210d5b05d38a0c01f316be27ad07fadb10015f497accfa78b7c3cdb5cb621038f2a5514a8fd540d306215ea47cded68140a4d1346f0b8dc35b4261701f7ec6952ae00000000",
            "blockheight": 156,
            "txindex": 5,
            "locktime": 0,
            "version": 2,
            "inputs": [
              {
                "txid": "channeltxid01050000500005000050000500005000050000500005000050000",
                "index": 3,
                "sequence": 4294967295
              }
            ],
            "outputs": [
              {
                "index": 0,
                "amount_msat": 17750000,
                "scriptPubKey": "5120db2dec31ac965ff2ad3e392d2cf6aa76128cea0ad98d018b07bc5de2e2346bfb"
              }
            ]
          },
          {
            "hash": "d8b6495e71f6fc5bd9230a501dc9127fdd7b62bf9a589cc192924d2ad327d19f",
            "rawtx": "020000000001033d846f01908f28d7d718f1c842e26b9b7c675a26a769c4d347f65e5c844debdc0000000000fdffffff7ff189e345e7c97ed4da89e2e229c4b67d83d9aaab233f4d9c8532606203de2b0000000000fdffffff3c5dde7197a28b7aeea62a2445ead3f48feaf18cb93c44cef3cadc4a5dc365480000000000fdffffff0250c30000000000002200209bd3269fda069b7ee0584622d458bb437635b3a179265dee3843ef18f42f35c6c21fef1100000000225120def24e878a66b695c4d5b414b42b7ce94471dac985bb0afb0367e8bbb92c5a520140ea811b092fc245652b5ace160bec7cfb0ab514437f45fa7cf4fad5d57e6dbf779d8ff65fbdb4146449e4e00a9a9edc834c62fd5bc5b37c690df49c449cfabd1b01406dba4f60866cf5c43b334c0e0156988e40f4f03d2a66dfd58cf1e0098653715cc36e5b5d7379957358d8a92f64410eec4add5377544affce6435b2a304a3cc2201405c3ed4b12e9f122f0e045ea18dbca80a681125865616e9f6a88ab2c4527161bad792853dab0af8bdbe25bc7755319373c4f09bd3110a69391883c686957f98869c000000",
            "blockheight": 157,
            "txindex": 1,
            "locktime": 156,
            "version": 2,
            "inputs": [
              {
                "txid": "dceb4d845c5ef647d3c469a7265a677c9b6be242c8f118d7d7288f90016f843d",
                "index": 0,
                "sequence": 4294967293
              },
              {
                "txid": "2bde03626032859c4d3f23abaad9837db6c429e2e289dad47ec9e745e389f17f",
                "index": 0,
                "sequence": 4294967293
              },
              {
                "txid": "4865c35d4adccaf3ce443cb98cf1ea8ff4d3ea45242aa6ee7a8ba29771de5d3c",
                "index": 0,
                "sequence": 4294967293
              }
            ],
            "outputs": [
              {
                "index": 0,
                "amount_msat": 50000000,
                "scriptPubKey": "00209bd3269fda069b7ee0584622d458bb437635b3a179265dee3843ef18f42f35c6"
              },
              {
                "index": 1,
                "amount_msat": 300883906000,
                "scriptPubKey": "5120def24e878a66b695c4d5b414b42b7ce94471dac985bb0afb0367e8bbb92c5a52"
              }
            ]
          },
          {
            "hash": "6359ffa21ad0ba9ddbae3723141132af923ebc9c5c37c7cea1f3ad0c0464a91c",
            "rawtx": "020000000001019fd127d32a4d9292c19c589abf627bdd7f12c91d500a23d95bfcf6715e49b6d80000000000ffffffff0186ba000000000000225120d41c550d30a802d368917f215c86d3351f161ebf00fc495b98e87e67ca3448760400473044022009deeb5079ac95d3466575e5ce363a2125fb2eca68a4f7706e01946f5b5a97ef022024b9a4e9fb1cc0bd50ace6254f5f2fc51185e60b070ab845e9d0c5b5332aaafa01473044022014c8d96a3604c3da8500902a8a17d74f36843afd436afce3686321a0d1afe7720220563a8aac2401d730a8d9c6ccee28750f5c019d48667daf2af386c9d10b123fe10147522102331879114f4a701a7d448286c11e54999754f9c85d4de4354b83c0496079e6632103b4fdbaf0f285ae4492f88b1b22af0d2a41c49817305bed84cece23ea0a6364ae52ae00000000",
            "blockheight": 157,
            "txindex": 2,
            "locktime": 0,
            "version": 2,
            "inputs": [
              {
                "txid": "channeltxid02060000600006000060000600006000060000600006000060000",
                "index": 0,
                "sequence": 4294967295
              }
            ],
            "outputs": [
              {
                "index": 0,
                "amount_msat": 47750000,
                "scriptPubKey": "5120d41c550d30a802d368917f215c86d3351f161ebf00fc495b98e87e67ca344876"
              }
            ]
          }
        ]
      }
    }
  ]
}
