{
  "$schema": "../rpc-schema-draft.json",
  "type": "object",
  "rpc": "listtransactions",
  "title": "Command to get the list of transactions that was stored in the wallet.",
  "description": [
    "The **listtransactions** command returns transactions tracked in the wallet. This includes deposits, withdrawals and transactions related to channels. A transaction may have multiple types, e.g., a transaction may both be a close and a deposit if it closes the channel and returns funds to the wallet."
  ],
  "categories": [
    "readonly"
  ],
  "request": {
    "required": [],
    "additionalProperties": false,
    "properties": {}
  },
  "response": {
    "required": [
      "transactions"
    ],
    "additionalProperties": false,
    "properties": {
      "transactions": {
        "type": "array",
        "items": {
          "type": "object",
          "additionalProperties": false,
          "required": [
            "hash",
            "rawtx",
            "blockheight",
            "txindex",
            "locktime",
            "version",
            "inputs",
            "outputs"
          ],
          "properties": {
            "hash": {
              "type": "txid",
              "description": [
                "The transaction id."
              ]
            },
            "rawtx": {
              "type": "hex",
              "description": [
                "The raw transaction."
              ]
            },
            "blockheight": {
              "type": "u32",
              "description": [
                "The block height of this tx."
              ]
            },
            "txindex": {
              "type": "u32",
              "description": [
                "The transaction number within the block."
              ]
            },
            "locktime": {
              "type": "u32",
              "description": [
                "The nLocktime for this tx."
              ]
            },
            "version": {
              "type": "u32",
              "description": [
                "The nVersion for this tx."
              ]
            },
            "inputs": {
              "type": "array",
              "description": [
                "Each input, in order."
              ],
              "items": {
                "type": "object",
                "additionalProperties": false,
                "required": [
                  "txid",
                  "index",
                  "sequence"
                ],
                "properties": {
                  "txid": {
                    "type": "txid",
                    "description": [
                      "The transaction id spent."
                    ]
                  },
                  "index": {
                    "type": "u32",
                    "description": [
                      "The output spent."
                    ]
                  },
                  "sequence": {
                    "type": "u32",
                    "description": [
                      "The nSequence value."
                    ]
                  }
                }
              }
            },
            "outputs": {
              "type": "array",
              "description": [
                "Each output, in order."
              ],
              "items": {
                "type": "object",
                "additionalProperties": false,
                "required": [
                  "index",
                  "amount_msat",
                  "scriptPubKey"
                ],
                "properties": {
                  "index": {
                    "type": "u32",
                    "description": [
                      "The 0-based output number."
                    ]
                  },
                  "amount_msat": {
                    "type": "msat",
                    "description": [
                      "The amount of the output."
                    ]
                  },
                  "scriptPubKey": {
                    "type": "hex",
                    "description": [
                      "The scriptPubKey."
                    ]
                  }
                }
              }
            }
          }
        }
      }
    }
  },
  "errors": [
    "On failure, one of the following error codes may be returned:",
    "",
    "- -32602: Error in given parameters."
  ],
  "author": [
    "Vincenzo Palazzo [vincenzo.palazzo@protonmail.com](mailto:vincenzo.palazzo@protonmail.com) wrote the initial version of this man page,",
    "but many others did the hard work of actually implementing this rpc command."
  ],
  "see_also": [
    "lightning-newaddr(7)",
    "lightning-listfunds(7)"
  ],
  "resources": [
    "Main web site: [https://github.com/ElementsProject/lightning](https://github.com/ElementsProject/lightning)"
  ],
  "examples": [
    {
      "request": {
        "id": "example:listtransactions#1",
        "method": "listtransactions",
        "params": {}
      },
      "response": {
        "transactions": [
          {
            "hash": "1d69767ff8fa861a731f48e38b856775da123f8a859b94bf1f04ead123c01365",
            "rawtx": "02000000000101bfdf1f293a2f630989ff4a63f4a4c74843d4178893ed8af502112b16333be4f10000000000fb99ee80044a010000000000002200206f7c277cc1b3c8a9b7c9d2c3fce765660f381b1085d539f31b3c5bf52c0875fa4a010000000000002200207f9475724a35f4edcbd353e76878e83e76e71490ed6ed2c6525c1a3179ebfa6fa00f00000000000022002062578235474f06095e56bdedc84a1fc048cf915e6b55ec7b9deaad70feb3b70b0a1d0f00000000002200200be82762aad4446848bd3b3671f3a6598301bcb4c9d6d48db23dea729f3ea3050400473044022056828a56b39bacfee902d0527ffc54f9f393f75cc07e155692bfc846ce53173f022032754786afe65edfb4fbadc75b622b095d30e144f0f856e64923c3b8f7fdc8d30147304402205995f09bdd483eb6013e4850ce9ea214c5f2bfc224c0d8e08620a642f6ababa202206f876233b4db5e8b2bbf4828b4723e36e241390151e48c7cef813e74bc64817901475221037f73e65c55b4a5da528c5b31ee32a8013cc2e999eb00deaccafd36894e38cf1d2103f4683196ad4f4a4b811e881dbeee36c0ea701a44c2a04f14003cde088277216c52ae5488bf20",
            "blockheight": 0,
            "txindex": 0,
            "locktime": 549423188,
            "version": 2,
            "inputs": [
              {
                "txid": "f1e43b33162b1102f58aed938817d44348c7a4f4634aff8909632f3a291fdfbf",
                "index": 0,
                "sequence": 2163120635
              }
            ],
            "outputs": [
              {
                "index": 0,
                "amount_msat": 330000,
                "scriptPubKey": "00206f7c277cc1b3c8a9b7c9d2c3fce765660f381b1085d539f31b3c5bf52c0875fa"
              },
              {
                "index": 1,
                "amount_msat": 330000,
                "scriptPubKey": "00207f9475724a35f4edcbd353e76878e83e76e71490ed6ed2c6525c1a3179ebfa6f"
              },
              {
                "index": 2,
                "amount_msat": 4000000,
                "scriptPubKey": "002062578235474f06095e56bdedc84a1fc048cf915e6b55ec7b9deaad70feb3b70b"
              },
              {
                "index": 3,
                "amount_msat": 990474000,
                "scriptPubKey": "00200be82762aad4446848bd3b3671f3a6598301bcb4c9d6d48db23dea729f3ea305"
              }
            ]
          },
          {
            "hash": "456ff0de546a7800e66a6a5c15ada9aa795fbcc40fa3157b7fcbf141afe31e05",
            "rawtx": "02000000000101ed000944f239bfbd9e876f399e82513778dacffd0005065fa6a173f9e4c870b20100000000fdffffff02b37c110501000000160014ec44e83fc7e283d34a477abd70b083fddbe0995b00c2eb0b000000001600145cbca4bc04a2e5d053d132d635486a04312272aa0247304402206d37b47e045550819692ae8c3fdc6d8572bd5411d0335951d1b2b5809253b7f7022072ff7a2ffb866ec3df41edcea426eca67b9d25134c19ce2602e132b88e68f9360121036c6305fede7588379b2eafa464df2073ad03b0ae903b4665e49ea7c2393fc5e869000000",
            "blockheight": 106,
            "txindex": 1,
            "locktime": 105,
            "version": 2,
            "inputs": [
              {
                "txid": "b270c8e4f973a1a65f060500fdcfda783751829e396f879ebdbf39f2440900ed",
                "index": 1,
                "sequence": 4294967293
              }
            ],
            "outputs": [
              {
                "index": 0,
                "amount_msat": 4379999411000,
                "scriptPubKey": "0014ec44e83fc7e283d34a477abd70b083fddbe0995b"
              },
              {
                "index": 1,
                "amount_msat": 200000000000,
                "scriptPubKey": "00145cbca4bc04a2e5d053d132d635486a04312272aa"
              }
            ]
          },
          {
            "hash": "9b01ec53263d0e6f8e131ffa0934094794efc5f0ada9934d307edb00d85d95ed",
            "rawtx": "02000000000101436fbe6391219940308eb334977604a6850777952df07246328c4abdecb7cad90000000000fdffffff0240420f0000000000220020a68adf1a0c89c2f61b51cf24185776ed08ac4f6e71fe0fb46d71eb54d00610f3012f0f00000000002251209bb0a0fd0157c7ad14828495907833c026eea468b3d57803549e67eeb16c82f80247304402205eff4b8a665906c3d352f0345130474ecf7aca61b1304e7ac7be08c1c6a37e4d022013e500847aabc60773d4c7390490e3e2ec8562da50518d9390592a34a730555a012102f9abcc5317f39696c3b468948d8554d32a577d8b195bb191a5be8530b7e19c8e1f000000",
            "blockheight": 112,
            "txindex": 1,
            "locktime": 31,
            "version": 2,
            "inputs": [
              {
                "txid": "d9cab7ecbd4a8c324672f02d95770785a604769734b38e304099219163be6f43",
                "index": 0,
                "sequence": 4294967293
              }
            ],
            "outputs": [
              {
                "index": 0,
                "amount_msat": 1000000000,
                "scriptPubKey": "0020a68adf1a0c89c2f61b51cf24185776ed08ac4f6e71fe0fb46d71eb54d00610f3"
              },
              {
                "index": 1,
                "amount_msat": 995073000,
                "scriptPubKey": "51209bb0a0fd0157c7ad14828495907833c026eea468b3d57803549e67eeb16c82f8"
              }
            ]
          },
          {
            "hash": "abe067ff2ce8c126fa900cd98f245dc6322227ceefbef83165bad94bbbb4ae86",
            "rawtx": "02000000000101436fbe6391219940308eb334977604a6850777952df07246328c4abdecb7cad90100000000fdffffff0280841e0000000000160014d5acf852e488aa5fc1c22fb45006faa280efbb7a7268deec0000000016001491bd356030cd90b13612ba856a54296fa13f797d024730440220211365ea6ff1c81ec67d4cafb7393e028c8f2fbf6251e05c3d0487a4cc1bd78102207cf7e46d40300cde74e0f821cbc3e91a640d5c2e7576199d600ba071e8815adb0121032309c9697ee2291749cdbd722f74a4389f6add3156c78d6fe0ced9dce2e0375f70000000",
            "blockheight": 113,
            "txindex": 1,
            "locktime": 112,
            "version": 2,
            "inputs": [
              {
                "txid": "d9cab7ecbd4a8c324672f02d95770785a604769734b38e304099219163be6f43",
                "index": 1,
                "sequence": 4294967293
              }
            ],
            "outputs": [
              {
                "index": 0,
                "amount_msat": 2000000000,
                "scriptPubKey": "0014d5acf852e488aa5fc1c22fb45006faa280efbb7a"
              },
              {
                "index": 1,
                "amount_msat": 3973998706000,
                "scriptPubKey": "001491bd356030cd90b13612ba856a54296fa13f797d"
              }
            ]
          },
          {
            "hash": "e5e035e840a58f58239adcadd021fc5e06131f93f246bbdfe7b49ac70bc96356",
            "rawtx": "02000000000101051ee3af41f1cb7f7b15a30fc4bc5f79aaa9ad155c6a6ae600786a54def06f450100000000fdffffff0240420f0000000000220020fce0a85d367c5c40f361d100038c7d1ff9e64f2af64be71b52e3302c1025be93816cdc0b00000000225120cd671b1cdc043e2daa42345b622b21f40a908de7597e81157f7b3f8fec5b9bf5024730440220602446cf21218deba8837b02663a3fb4dd12872aa30b607c46080e11bc73d7ef0220240374db13317bf92512c8ddee4c5da18836c34edc4e9e26ef870c99fb9a274701210269dcd24e00d4db6344c1e86d56ae588bc52fac0bc456d2d7251552534ffc30a171000000",
            "blockheight": 114,
            "txindex": 1,
            "locktime": 113,
            "version": 2,
            "inputs": [
              {
                "txid": "456ff0de546a7800e66a6a5c15ada9aa795fbcc40fa3157b7fcbf141afe31e05",
                "index": 1,
                "sequence": 4294967293
              }
            ],
            "outputs": [
              {
                "index": 0,
                "amount_msat": 1000000000,
                "scriptPubKey": "0020fce0a85d367c5c40f361d100038c7d1ff9e64f2af64be71b52e3302c1025be93"
              },
              {
                "index": 1,
                "amount_msat": 198995073000,
                "scriptPubKey": "5120cd671b1cdc043e2daa42345b622b21f40a908de7597e81157f7b3f8fec5b9bf5"
              }
            ]
          },
          {
            "hash": "1ff9c88bbb5d2fd492353afbbe6646ede5e377c533d8329fe8a2106517d227a5",
            "rawtx": "020000000001015663c90bc79ab4e7dfbb46f2931f13065efc21d0addc9a23588fa540e835e0e50000000000ffffffff026b6f0700000000001600143e377b48b14df55eb4f0b71ad62ac69ea7a8644a3ac807000000000022512048e0db1f36c9696aaec1b62416f106bfe8d556bf0792ff8f40e79ccc06d15a1a040047304402201864d5506c07ffd5adf0f5fc9082c1b2a235bc236e109fb650a8556c45071a0d022000b788f1a45bdbe2578795bda278097bc74889f9795b37acf24569d2385abbea01473044022045c87990da962be4a1a1d90bd6b4d6d22d177da4cdd684cebf2beae5d6ade74802204320c8769e8f8c1314ed6b9385e01a15c0c0e48d46b02818c279631af8280c6501475221020e55d5387c8b6e8c5fc7237fe8836c23a5946bede705b17a5139857a7b794d412103b17a20062f164e9aeaf7cdde40fe99c80f4fa261f59f709722814cda2135c54752ae00000000",
            "blockheight": 122,
            "txindex": 1,
            "locktime": 0,
            "version": 2,
            "inputs": [
              {
                "txid": "e5e035e840a58f58239adcadd021fc5e06131f93f246bbdfe7b49ac70bc96356",
                "index": 0,
                "sequence": 4294967295
              }
            ],
            "outputs": [
              {
                "index": 0,
                "amount_msat": 487275000,
                "scriptPubKey": "00143e377b48b14df55eb4f0b71ad62ac69ea7a8644a"
              },
              {
                "index": 1,
                "amount_msat": 510010000,
                "scriptPubKey": "512048e0db1f36c9696aaec1b62416f106bfe8d556bf0792ff8f40e79ccc06d15a1a"
              }
            ]
          },
          {
            "hash": "4a9d2d2217f35c9c764c6f3a97e07cf4f4abcb83dec40399b666024558bbf1a5",
            "rawtx": "02000000000101ed955dd800db7e304d93a9adf0c5ef9447093409fa1f138e6f0e3d2653ec019b0000000000ffffffff02026e0700000000002251200f45bc0d48f0a17bfd7fd8dd7dd4ced31589b86b36ea27bc4855bb3811c4aed2eec8070000000000225120eddfdc0684845dac712b1f1f3df32583ccaa449417cf4f3419017bcb03fe64f704004730440220562e1c2ce1993b5be6d85c18dd554166ac3ce65a35f0f5ef8bad42a8dd2fa5940220449c67f6dff874a8d8c3609b5a073c863d0b106a62f3e73605437d122186f1d8014730440220606fdf76ec72f447ad65df208b9569dee067d15d4f90e854e169fe3b9c62709202204d5689c596d1bb27565fd25ae7239281e90a48f17471013ed5af1c123932be370147522102428a180ab8faac4ff429b8f3423a76e982891c03b79ca9c8a17c0aa076f5a34d210291d9e5ea60956c8c94ba8dec13c7cbd130d2efa3ebe1c2aff4f794011da7749652ae00000000",
            "blockheight": 122,
            "txindex": 2,
            "locktime": 0,
            "version": 2,
            "inputs": [
              {
                "txid": "9b01ec53263d0e6f8e131ffa0934094794efc5f0ada9934d307edb00d85d95ed",
                "index": 0,
                "sequence": 4294967295
              }
            ],
            "outputs": [
              {
                "index": 0,
                "amount_msat": 486914000,
                "scriptPubKey": "51200f45bc0d48f0a17bfd7fd8dd7dd4ced31589b86b36ea27bc4855bb3811c4aed2"
              },
              {
                "index": 1,
                "amount_msat": 510190000,
                "scriptPubKey": "5120eddfdc0684845dac712b1f1f3df32583ccaa449417cf4f3419017bcb03fe64f7"
              }
            ]
          },
          {
            "hash": "4d567153942197a40cac53cd74089f9fbc70f565313244b746709291e1110746",
            "rawtx": "02000000000102052b6bf290ae822748ad4a16c3e93b428619cbae1af901bdd61e7b78574fc0690100000000fdffffff20554b8ffa0ee401e1c45c9dae29549b7600fa3d89e41f84a753189ea462b9290100000000fdffffff0240420f000000000022002089c65b2253d1654c17df3b873450f084d2e2c2f92be01832f3335e44a971026b45571e0000000000225120b83b6b7a6b050df2864b4d610b88ab33d29a1a78a096062914c071a4798990710140b5319d90eec09d36d448b3b8b2624d3bd96fc67e6c56c8df658ff86933dd5a21dee1735dd78ddd8973f89f1eacc1dbf7dbe2da29828a1a5f9144104db1e17537024730440220589ae6d93eac45be7712669cc66211296be1e8c69aa3938d08fc7875e44918c2022069244638366d136e3e7aee5c4e44c8f0de3a4fe33c26f48bb603d725c413f017012102e218388e5dd4f00e2a16d3d1a4e017734c57c4af9e455f8b3e43c0d978ae85dc7b000000",
            "blockheight": 124,
            "txindex": 1,
            "locktime": 123,
            "version": 2,
            "inputs": [
              {
                "txid": "69c04f57787b1ed6bd01f91aaecb1986423be9c3164aad482782ae90f26b2b05",
                "index": 1,
                "sequence": 4294967293
              },
              {
                "txid": "29b962a49e1853a7841fe4893dfa00769b5429ae9d5cc4e101e40efa8f4b5520",
                "index": 1,
                "sequence": 4294967293
              }
            ],
            "outputs": [
              {
                "index": 0,
                "amount_msat": 1000000000,
                "scriptPubKey": "002089c65b2253d1654c17df3b873450f084d2e2c2f92be01832f3335e44a971026b"
              },
              {
                "index": 1,
                "amount_msat": 1988421000,
                "scriptPubKey": "5120b83b6b7a6b050df2864b4d610b88ab33d29a1a78a096062914c071a479899071"
              }
            ]
          },
          {
            "hash": "7d5f6475bd740ac598d298fab4219bf52e6f91b20e91a771cc43efd2b2bda8d7",
            "rawtx": "0200000000010120554b8ffa0ee401e1c45c9dae29549b7600fa3d89e41f84a753189ea462b9290000000000fdffffff024bd982ec00000000160014b08ac9eca1e3f7e984cbfd6e70e20efef61cd96180841e000000000016001491a7bc4d0a312d503a120af07e76fb4c9f30f2d6024730440220174157565da24eeb34a7ba35ad248b47ecb15904d30e2e4b60b548a2ade58f530220308ba76b90a735938db8db5a37f562c58c9bf2155d680eea65e8498f36412a94012102fc2d7bf8bffbe6d03af63e9a93369885cc25d653c4a3197f2af243cd9b1b6bbe7c000000",
            "blockheight": 125,
            "txindex": 1,
            "locktime": 124,
            "version": 2,
            "inputs": [
              {
                "txid": "29b962a49e1853a7841fe4893dfa00769b5429ae9d5cc4e101e40efa8f4b5520",
                "index": 0,
                "sequence": 4294967293
              }
            ],
            "outputs": [
              {
                "index": 0,
                "amount_msat": 3967998283000,
                "scriptPubKey": "0014b08ac9eca1e3f7e984cbfd6e70e20efef61cd961"
              },
              {
                "index": 1,
                "amount_msat": 2000000000,
                "scriptPubKey": "001491a7bc4d0a312d503a120af07e76fb4c9f30f2d6"
              }
            ]
          },
          {
            "hash": "f1e43b33162b1102f58aed938817d44348c7a4f4634aff8909632f3a291fdfbf",
            "rawtx": "020000000001015663c90bc79ab4e7dfbb46f2931f13065efc21d0addc9a23588fa540e835e0e50100000000fdffffff0240420f0000000000220020c0028cb98a9f9a83c83e01cb75999b857f91811a5e3c1255b18bb7a406ca49e73518cd0b00000000225120b6e5030f85b2037cf336dcde5c7c1f898bde94d5402c49221d6dcdc55a31a097014032dc84c0d935e12a73e7ffef75884e9f98d3f07cf7ccce9b3ff38022ab14fe86ae18e597eec68f29ff46802a5e956a3eec80a6b45ade26f11d265a22375584707d000000",
            "blockheight": 126,
            "txindex": 1,
            "locktime": 125,
            "version": 2,
            "inputs": [
              {
                "txid": "e5e035e840a58f58239adcadd021fc5e06131f93f246bbdfe7b49ac70bc96356",
                "index": 1,
                "sequence": 4294967293
              }
            ],
            "outputs": [
              {
                "index": 0,
                "amount_msat": 1000000000,
                "scriptPubKey": "0020c0028cb98a9f9a83c83e01cb75999b857f91811a5e3c1255b18bb7a406ca49e7"
              },
              {
                "index": 1,
                "amount_msat": 197990453000,
                "scriptPubKey": "5120b6e5030f85b2037cf336dcde5c7c1f898bde94d5402c49221d6dcdc55a31a097"
              }
            ]
          },
          {
            "hash": "c841b47ae04fba0046b38da26f22e0af08507de9534e013b861b3edad89f91cd",
            "rawtx": "02000000000101a5f1bb58450266b69903c4de83cbabf4f47ce0973a6f4c769c5cf317222d9d4a0000000000fdffffff0156650700000000002251207a29fbd919b4095bb7a4e95d03f0d06c3001239b3283660d83cd56accc6511f3014030d171c56605523720847754efc3b3cf6b71957aebf82886fd9f651fe11eee00aa11b8bf83b09d19a9a8bf74eff3faddb0a5d81a92205abdd0bc17072b82e40888000000",
            "blockheight": 137,
            "txindex": 1,
            "locktime": 136,
            "version": 2,
            "inputs": [
              {
                "txid": "4a9d2d2217f35c9c764c6f3a97e07cf4f4abcb83dec40399b666024558bbf1a5",
                "index": 0,
                "sequence": 4294967293
              }
            ],
            "outputs": [
              {
                "index": 0,
                "amount_msat": 484694000,
                "scriptPubKey": "51207a29fbd919b4095bb7a4e95d03f0d06c3001239b3283660d83cd56accc6511f3"
              }
            ]
          },
          {
            "hash": "2b9aac10e3d9c07b550c39c961202a2ad497436ad3236df303d138242810d1a8",
            "rawtx": "02000000000101103a2dddcc4296d8bb0fb6af061870f4d2c7e6e37df6b2e5fb06377e7fcd7c3e0100000000fdffffff08e687150000000000225120bac2b59dbcd6b4cf054550c9748f7fe1b0ce22dac3344b44c305407246762fa3e8030000000000002251200958deebdc8ae01f4af2c2a1ab05423e320aba49863d0e4376bd4a1cd945a091e803000000000000160014c13df98a09f6287de37be00b4da94e6651384200e8030000000000001600142b72a64cbf1e9828e237b32056bf26638ab27942e803000000000000160014a1403aa7de6a7a79e89945f6d92f91297f79d724e8030000000000001600140f6e59454dbfd0e744a34326d5925c17fa63ed36e803000000000000160014e4e7895a2cdf6ce779f5c6202c99de3e3b3b36e8e8030000000000002251206da3edbbf110189ea0eb7c95e18d4eace1a75d18c557813b55745bb862cecb7a0140e061f8c16af9c108c2a5e05ef56a1d0a9a964262304decd307c2ff4457893353a81371356a53fcd7928a2873785a8c8ba3640074949dc0db22c534fbc8847ba48c000000",
            "blockheight": 141,
            "txindex": 1,
            "locktime": 140,
            "version": 2,
            "inputs": [
              {
                "txid": "3e7ccd7f7e3706fbe5b2f67de3e6c7d2f4701806afb60fbbd89642ccdd2d3a10",
                "index": 1,
                "sequence": 4294967293
              }
            ],
            "outputs": [
              {
                "index": 0,
                "amount_msat": 1411046000,
                "scriptPubKey": "5120bac2b59dbcd6b4cf054550c9748f7fe1b0ce22dac3344b44c305407246762fa3"
              },
              {
                "index": 1,
                "amount_msat": 1000000,
                "scriptPubKey": "51200958deebdc8ae01f4af2c2a1ab05423e320aba49863d0e4376bd4a1cd945a091"
              },
              {
                "index": 2,
                "amount_msat": 1000000,
                "scriptPubKey": "0014c13df98a09f6287de37be00b4da94e6651384200"
              },
              {
                "index": 3,
                "amount_msat": 1000000,
                "scriptPubKey": "00142b72a64cbf1e9828e237b32056bf26638ab27942"
              },
              {
                "index": 4,
                "amount_msat": 1000000,
                "scriptPubKey": "0014a1403aa7de6a7a79e89945f6d92f91297f79d724"
              },
              {
                "index": 5,
                "amount_msat": 1000000,
                "scriptPubKey": "00140f6e59454dbfd0e744a34326d5925c17fa63ed36"
              },
              {
                "index": 6,
                "amount_msat": 1000000,
                "scriptPubKey": "0014e4e7895a2cdf6ce779f5c6202c99de3e3b3b36e8"
              },
              {
                "index": 7,
                "amount_msat": 1000000,
                "scriptPubKey": "51206da3edbbf110189ea0eb7c95e18d4eace1a75d18c557813b55745bb862cecb7a"
              }
            ]
          },
          {
            "hash": "26493d5f46e5d4ac9e0594ed47af4e2c40eb7381c2bcf90adb8d86e5aeff304b",
            "rawtx": "0200000000010186aeb4bb4bd9ba6531f8beefce272232c65d248fd90c90fa26c1e82cff67e0ab0000000000fdffffff0240420f00000000002200202bdf62cf77ca8d331ee03e40d1eb7fa14bb8078c3427d7714f271e37468645e8012f0f00000000002251205f5ccf17471f681b995a3eadb89503818769d6be3f30c72584b60200a525ac30024730440220063d31e1e44dea02dc18cb5c2af59ee1ef8a1df4b884204b1746db68eb9acbd702205301203efa11038408b41aa48021d2bb3537698de35ae876df58dc99fe47973d012103a21e0831a259e04ac8ec707cea558cc9d90a6cceec58d164008d430adeb884cc9a000000",
            "blockheight": 156,
            "txindex": 2,
            "locktime": 154,
            "version": 2,
            "inputs": [
              {
                "txid": "abe067ff2ce8c126fa900cd98f245dc6322227ceefbef83165bad94bbbb4ae86",
                "index": 0,
                "sequence": 4294967293
              }
            ],
            "outputs": [
              {
                "index": 0,
                "amount_msat": 1000000000,
                "scriptPubKey": "00202bdf62cf77ca8d331ee03e40d1eb7fa14bb8078c3427d7714f271e37468645e8"
              },
              {
                "index": 1,
                "amount_msat": 995073000,
                "scriptPubKey": "51205f5ccf17471f681b995a3eadb89503818769d6be3f30c72584b60200a525ac30"
              }
            ]
          },
          {
            "hash": "ee28aa7e61be5dea23bb966115c7821156d3a18f824c2560ee32d585d45d499a",
            "rawtx": "020000000001014b30ffaee5868ddb0af9bcc28173eb402c4eaf47ed94059eacd4e5465f3d49260000000000ffffffff0176390f0000000000225120169e0f8fd41962da8f275621cc712e75fcc81ec1266235ecaf0e94efbf7d86070400473044022073e131948975b191c4e7033764e89995227b67592e1a8d2b4fa94c7e01bb47e402204c651a61d61f27e9e15ca22eeed9f804c91f974eb7062caaed7554f48a1adf1b01473044022055dc3002a662c249af72c798e516ffa2cb03b71c0a342dbb102c876a1d7c78980220324827c0c43b02c110ba516433bae4218a91f0af40c7870ac77f98c41b4dba1101475221024778e1278c9a70ef064e03285edb8281e95473a8f8900823e5dd9a0f4daa40af2103d02199675ce9e196c5aba59f666819662b0799a35291df2c10060752d623fa6552ae00000000",
            "blockheight": 156,
            "txindex": 5,
            "locktime": 0,
            "version": 2,
            "inputs": [
              {
                "txid": "26493d5f46e5d4ac9e0594ed47af4e2c40eb7381c2bcf90adb8d86e5aeff304b",
                "index": 0,
                "sequence": 4294967295
              }
            ],
            "outputs": [
              {
                "index": 0,
                "amount_msat": 997750000,
                "scriptPubKey": "5120169e0f8fd41962da8f275621cc712e75fcc81ec1266235ecaf0e94efbf7d8607"
              }
            ]
          },
          {
            "hash": "97fd847f1c8242a6399b6b55a54ccdba179573849113b9d448e38d018873b319",
            "rawtx": "0200000000010708d6d782efc3b4ce4319457ab96a65d85edb2f168e2826b6b1a3b4db095c7a8f0100000000fdffffff08d6d782efc3b4ce4319457ab96a65d85edb2f168e2826b6b1a3b4db095c7a8f0200000000fdffffff3e0bb0e24421cd07aae421f00e9ace9cde1ddcff4ad243363895ce2f3fd914720000000000fdffffffa8d110282438d103f36d23d36a4397d42a2a2061c9390c557bc0d9e310ac9a2b0200000000fdffffffa8d110282438d103f36d23d36a4397d42a2a2061c9390c557bc0d9e310ac9a2b0600000000fdffffffa8d110282438d103f36d23d36a4397d42a2a2061c9390c557bc0d9e310ac9a2b0700000000fdffffffac1ac1902c96956438e71f50b0c8913ede3d727c46f1167488fc6dad53a407900000000000fdffffff04a8610000000000002251201b51b2231176f1ad2f205f7be722d3a4549d2a9550281536d21cbc5e018ed48a307500000000000022002089df8e73118830cb1f909727e62db20c179bc683b1412179416a9c7fd3b0f078204e000000000000220020c78f7612091014be627511d7759daf13553b15fcda2b8fb4a9d878afb3496c57effc12060000000022002006addd4c05131a5d7bb40d0ffc74d00e648d908d5765b7498762348042eb66bf02473044022039f30125470de5772e573ec462d8c32e7f0a06e3aaff912593533586afbf11f70220064a40f4e91e217c513685ca9db57d7df03d5446379f8359399c654619db447c012102d89a2b5862744b39a15a6ab316b3e1aab0ebc1d63c610c17015ba1a9f8568fd4024730440220779da37632851f20fb89bfacbfd238c707ad2128d983a6b163b836b080a70cec02200437f5074157b975d63188d384b529dcced8475e43ff5c07e65d0b53d3700b5a01210370eb10c2b3f30d1481ce0802a97c1345ca927cac5637831214f4b431436e57c502473044022038093b7f58563a84eee60ac47476d300c0086a9095b00877d36649e0eb8ad17c02206942546f4f81cd56aeeb9ffe36859e964de67d62a10ab161b5370792ebcbb8d4012103c0fa2ec66a8e1ba14f7b282fdac52d0004eb3051d20904730ef163126e116f6a0247304402202335d3654ffd7b07eb837e3a7f9650663df9e830368706de232ac58ce69322140220512b3af6d8888b385ddf4e459da27e54600dc159890b8bb7fde0f49059c2554f0121028ebd2158aec94a0dcdba681f97dd634c5eacbde5b92721bf7724fe072e0199a80247304402206cb0c11b10f00625ec976951800fcec186b93d045e5244c62a6eddf18524661b02204eca99f191937a515d9200329d2d750f71170c6123cd5f31de54b55ba98163a3012103c93e0fee95a1c62556d78bab9591b8c3178ad669b94587710314293c70d7c6d80140711f39e2e59adf45d667477c458a06b657b9d57596072674deedffea086e3f527ee5f6401b8243c3092a7efe7613a3c6e6dc127104daa621a0f8cae89138176502473044022044b37046d9450689daeba3f92942ec37f7f20fc3057756f1a2289028869be71b022024e2573954e12bb9377c90013d1505dd2f42e18caf9fce05418aad3646ef77aa0121021649643413f6b0f1b47b69b09e4b88df16bdc1fb5b6bfed57ec2eba335e755c89c000000",
            "blockheight": 157,
            "txindex": 1,
            "locktime": 156,
            "version": 2,
            "inputs": [
              {
                "txid": "8f7a5c09dbb4a3b1b626288e162fdb5ed8656ab97a451943ceb4c3ef82d7d608",
                "index": 1,
                "sequence": 4294967293
              },
              {
                "txid": "8f7a5c09dbb4a3b1b626288e162fdb5ed8656ab97a451943ceb4c3ef82d7d608",
                "index": 2,
                "sequence": 4294967293
              },
              {
                "txid": "7214d93f2fce95383643d24affdc1dde9cce9a0ef021e4aa07cd2144e2b00b3e",
                "index": 0,
                "sequence": 4294967293
              },
              {
                "txid": "2b9aac10e3d9c07b550c39c961202a2ad497436ad3236df303d138242810d1a8",
                "index": 2,
                "sequence": 4294967293
              },
              {
                "txid": "2b9aac10e3d9c07b550c39c961202a2ad497436ad3236df303d138242810d1a8",
                "index": 6,
                "sequence": 4294967293
              },
              {
                "txid": "2b9aac10e3d9c07b550c39c961202a2ad497436ad3236df303d138242810d1a8",
                "index": 7,
                "sequence": 4294967293
              },
              {
                "txid": "9007a453ad6dfc887416f1467c723dde3e91c8b0501fe7386495962c90c11aac",
                "index": 0,
                "sequence": 4294967293
              }
            ],
            "outputs": [
              {
                "index": 0,
                "amount_msat": 25000000,
                "scriptPubKey": "51201b51b2231176f1ad2f205f7be722d3a4549d2a9550281536d21cbc5e018ed48a"
              },
              {
                "index": 1,
                "amount_msat": 30000000,
                "scriptPubKey": "002089df8e73118830cb1f909727e62db20c179bc683b1412179416a9c7fd3b0f078"
              },
              {
                "index": 2,
                "amount_msat": 20000000,
                "scriptPubKey": "0020c78f7612091014be627511d7759daf13553b15fcda2b8fb4a9d878afb3496c57"
              },
              {
                "index": 3,
                "amount_msat": 101907695000,
                "scriptPubKey": "002006addd4c05131a5d7bb40d0ffc74d00e648d908d5765b7498762348042eb66bf"
              }
            ]
          },
          {
            "hash": "2859b854097c3f60780f43b23951ef8fcaf6d528aa3992f8f7479957278da19a",
            "rawtx": "0200000000010119b37388018de348d4b9139184739517bacd4ca5556b9b39a642821c7f84fd970200000000ffffffff0156450000000000002251207df7b21b2b0653344bc7d240d4e70295002696c14150f8fad6e3bd88c0d8520b04004730440220217ab85f5e33a076da211c5df600dc1c86c900aa1f3f6d6da77508ace8985a3c0220052b45892d58f98f32e3bf89076730dad766cf213d448ed7616c8cb80e3eec8001473044022053f796218ddfe1f6a531e7a424c5b0d2d7574d30a13d2acc3580ed9ea4cb7e9502200fc5d2f33cfc2a437fa459cebf703d9ceac22204b99e0736ec1be8aff52106930147522103e52cb6f368d39911714975c31f190723d9af971a899045c1c794b07a814d33f32103f377c55b6893fbfc33b9b68e43f5b84441bd5836bdba2893f23f8edafc5c4b8952ae00000000",
            "blockheight": 157,
            "txindex": 5,
            "locktime": 0,
            "version": 2,
            "inputs": [
              {
                "txid": "97fd847f1c8242a6399b6b55a54ccdba179573849113b9d448e38d018873b319",
                "index": 2,
                "sequence": 4294967295
              }
            ],
            "outputs": [
              {
                "index": 0,
                "amount_msat": 17750000,
                "scriptPubKey": "51207df7b21b2b0653344bc7d240d4e70295002696c14150f8fad6e3bd88c0d8520b"
              }
            ]
          }
        ]
      }
    }
  ]
}
