{
  "$schema": "../rpc-schema-draft.json",
  "type": "object",
  "rpc": "listtransactions",
  "title": "Command to get the list of transactions that was stored in the wallet.",
  "description": [
    "The **listtransactions** command returns transactions tracked in the wallet. This includes deposits, withdrawals and transactions related to channels. A transaction may have multiple types, e.g., a transaction may both be a close and a deposit if it closes the channel and returns funds to the wallet."
  ],
  "categories": [
    "readonly"
  ],
  "request": {
    "required": [],
    "additionalProperties": false,
    "properties": {}
  },
  "response": {
    "required": [
      "transactions"
    ],
    "additionalProperties": false,
    "properties": {
      "transactions": {
        "type": "array",
        "items": {
          "type": "object",
          "additionalProperties": false,
          "required": [
            "hash",
            "rawtx",
            "blockheight",
            "txindex",
            "locktime",
            "version",
            "inputs",
            "outputs"
          ],
          "properties": {
            "hash": {
              "type": "txid",
              "description": [
                "The transaction id."
              ]
            },
            "rawtx": {
              "type": "hex",
              "description": [
                "The raw transaction."
              ]
            },
            "blockheight": {
              "type": "u32",
              "description": [
                "The block height of this tx."
              ]
            },
            "txindex": {
              "type": "u32",
              "description": [
                "The transaction number within the block."
              ]
            },
            "locktime": {
              "type": "u32",
              "description": [
                "The nLocktime for this tx."
              ]
            },
            "version": {
              "type": "u32",
              "description": [
                "The nVersion for this tx."
              ]
            },
            "inputs": {
              "type": "array",
              "description": [
                "Each input, in order."
              ],
              "items": {
                "type": "object",
                "additionalProperties": false,
                "required": [
                  "txid",
                  "index",
                  "sequence"
                ],
                "properties": {
                  "txid": {
                    "type": "txid",
                    "description": [
                      "The transaction id spent."
                    ]
                  },
                  "index": {
                    "type": "u32",
                    "description": [
                      "The output spent."
                    ]
                  },
                  "sequence": {
                    "type": "u32",
                    "description": [
                      "The nSequence value."
                    ]
                  }
                }
              }
            },
            "outputs": {
              "type": "array",
              "description": [
                "Each output, in order."
              ],
              "items": {
                "type": "object",
                "additionalProperties": false,
                "required": [
                  "index",
                  "amount_msat",
                  "scriptPubKey"
                ],
                "properties": {
                  "index": {
                    "type": "u32",
                    "description": [
                      "The 0-based output number."
                    ]
                  },
                  "amount_msat": {
                    "type": "msat",
                    "description": [
                      "The amount of the output."
                    ]
                  },
                  "scriptPubKey": {
                    "type": "hex",
                    "description": [
                      "The scriptPubKey."
                    ]
                  }
                }
              }
            }
          }
        }
      }
    }
  },
  "errors": [
    "On failure, one of the following error codes may be returned:",
    "",
    "- -32602: Error in given parameters."
  ],
  "author": [
    "Vincenzo Palazzo [vincenzo.palazzo@protonmail.com](mailto:vincenzo.palazzo@protonmail.com) wrote the initial version of this man page,",
    "but many others did the hard work of actually implementing this rpc command."
  ],
  "see_also": [
    "lightning-newaddr(7)",
    "lightning-listfunds(7)"
  ],
  "resources": [
    "Main web site: [https://github.com/ElementsProject/lightning](https://github.com/ElementsProject/lightning)"
  ],
  "examples": [
    {
      "request": {
        "id": "example:listtransactions#1",
        "method": "listtransactions",
        "params": {}
      },
      "response": {
        "transactions": [
          {
            "hash": "5ba3dd991e8447f1063c689e490ed3d9d91e839e4264aaa9f7fa8081a665c25a",
            "rawtx": "02000000000101583d5e529aa23d57d829abee10d3b4749e6ccc943d29276062812640948d6d280200000000ffffffff015645000000000000225120e892bf54f9770428ff2963966b3c270d93ec0081a22fb8ef6b4137b304cd4e2e0400473044022009dad3d9596774a78a9d34cd5442d70725b4ca6522c30d88433df175a539950d0220699cc8c3cb3346e66a8a400a9f2113558d175732d7507967ed51db6e9f4fc3590147304402207cd6b0555c7d431f6ca122cfdda6b033ac8fc572daa6cad8ebc897769ade96fa02205cd50aa92dc1ad6e0dc3d40a2ba1fde681d07eab1e0654d191a7cd2c88248b9d0147522103e52cb6f368d39911714975c31f190723d9af971a899045c1c794b07a814d33f32103f377c55b6893fbfc33b9b68e43f5b84441bd5836bdba2893f23f8edafc5c4b8952ae00000000",
            "blockheight": 0,
            "txindex": 0,
            "locktime": 0,
            "version": 2,
            "inputs": [
              {
                "txid": "286d8d94402681626027293d94cc6c9e74b4d310eeab29d8573da29a525e3d58",
                "index": 2,
                "sequence": 4294967295
              }
            ],
            "outputs": [
              {
                "index": 0,
                "amount_msat": 17750000,
                "scriptPubKey": "5120e892bf54f9770428ff2963966b3c270d93ec0081a22fb8ef6b4137b304cd4e2e"
              }
            ]
          },
          {
            "hash": "aca2de136722141c0f9de4c15c71fd53d9be377bdcaf10d2da143aca6bde02a2",
            "rawtx": "02000000000101452fdded6642572973f4f2898ee085d887db26e80d053d0d4833a8bbd78f49930000000000fb99ee80044a010000000000002200206f7c277cc1b3c8a9b7c9d2c3fce765660f381b1085d539f31b3c5bf52c0875fa4a010000000000002200207f9475724a35f4edcbd353e76878e83e76e71490ed6ed2c6525c1a3179ebfa6fa00f00000000000022002062578235474f06095e56bdedc84a1fc048cf915e6b55ec7b9deaad70feb3b70b0a1d0f00000000002200200be82762aad4446848bd3b3671f3a6598301bcb4c9d6d48db23dea729f3ea305040047304402204ce306dfdc63ba26ab2ec796549d155d3eef1e8c55088c3f786f2e29052511230220118ee74d85670d43fb51aa16627b623bab6e14e07dc66fc66188b7345eed30390147304402206a04371017518a37f47872878a2a9f6f86e51e6b2e3f29e015cfc1627f38d78e02201820b208ae4ed1b2b447e5c24e3b0ed5aac3e18b62c9812cff86dc0ee744a13701475221037f73e65c55b4a5da528c5b31ee32a8013cc2e999eb00deaccafd36894e38cf1d2103f4683196ad4f4a4b811e881dbeee36c0ea701a44c2a04f14003cde088277216c52ae5488bf20",
            "blockheight": 0,
            "txindex": 0,
            "locktime": 549423188,
            "version": 2,
            "inputs": [
              {
                "txid": "93498fd7bba833480d3d050de826db87d885e08e89f2f47329574266eddd2f45",
                "index": 0,
                "sequence": 2163120635
              }
            ],
            "outputs": [
              {
                "index": 0,
                "amount_msat": 330000,
                "scriptPubKey": "00206f7c277cc1b3c8a9b7c9d2c3fce765660f381b1085d539f31b3c5bf52c0875fa"
              },
              {
                "index": 1,
                "amount_msat": 330000,
                "scriptPubKey": "00207f9475724a35f4edcbd353e76878e83e76e71490ed6ed2c6525c1a3179ebfa6f"
              },
              {
                "index": 2,
                "amount_msat": 4000000,
                "scriptPubKey": "002062578235474f06095e56bdedc84a1fc048cf915e6b55ec7b9deaad70feb3b70b"
              },
              {
                "index": 3,
                "amount_msat": 990474000,
                "scriptPubKey": "00200be82762aad4446848bd3b3671f3a6598301bcb4c9d6d48db23dea729f3ea305"
              }
            ]
          },
          {
            "hash": "e0a4ee4212dac12d3ad1e16dab0e010b0c3e726f376fe4b664b3836cca5fa5a2",
            "rawtx": "02000000000101b85812aa66d33fbbc7d09da016ce8505b7b958cf01cb0934d155ee93eba7ec020100000000fdffffff02b37c110501000000160014ec44e83fc7e283d34a477abd70b083fddbe0995b00c2eb0b000000001600145cbca4bc04a2e5d053d132d635486a04312272aa02473044022005a637c01918c3f0b7707fd26a26e38b212e6fcce3401a9dd5f6ff7172e5bda5022054330a3ddda177b11d6d8693609e3ddadbbab97299615524a91d9f5fde58a4cf0121036c6305fede7588379b2eafa464df2073ad03b0ae903b4665e49ea7c2393fc5e869000000",
            "blockheight": 106,
            "txindex": 1,
            "locktime": 105,
            "version": 2,
            "inputs": [
              {
                "txid": "02eca7eb93ee55d13409cb01cf58b9b70585ce16a09dd0c7bb3fd366aa1258b8",
                "index": 1,
                "sequence": 4294967293
              }
            ],
            "outputs": [
              {
                "index": 0,
                "amount_msat": 4379999411000,
                "scriptPubKey": "0014ec44e83fc7e283d34a477abd70b083fddbe0995b"
              },
              {
                "index": 1,
                "amount_msat": 200000000000,
                "scriptPubKey": "00145cbca4bc04a2e5d053d132d635486a04312272aa"
              }
            ]
          },
          {
            "hash": "190ac96873b9ee0201a7e5093e2be50cf40a0f135c4e5dc63c7568b5ead0d2d5",
            "rawtx": "0200000000010158f8ed147c87174737cbfdbb087f3fdab26c44707650a561f3ec96283eeb57fe0100000000fdffffff0240420f0000000000220020a68adf1a0c89c2f61b51cf24185776ed08ac4f6e71fe0fb46d71eb54d00610f3012f0f00000000002251209bb0a0fd0157c7ad14828495907833c026eea468b3d57803549e67eeb16c82f80247304402202c9b30e040ccd2d3ed69360aa1e9339a555b8564a79aefdfcb4c9d4bc5c7a11b02206cc4df6dbaba9dfabd71fb93c0c93d24e73ce80cfcfed8fd4f522865ad2ddb77012102f9abcc5317f39696c3b468948d8554d32a577d8b195bb191a5be8530b7e19c8e1f000000",
            "blockheight": 112,
            "txindex": 1,
            "locktime": 31,
            "version": 2,
            "inputs": [
              {
                "txid": "fe57eb3e2896ecf361a5507670446cb2da3f7f08bbfdcb374717877c14edf858",
                "index": 1,
                "sequence": 4294967293
              }
            ],
            "outputs": [
              {
                "index": 0,
                "amount_msat": 1000000000,
                "scriptPubKey": "0020a68adf1a0c89c2f61b51cf24185776ed08ac4f6e71fe0fb46d71eb54d00610f3"
              },
              {
                "index": 1,
                "amount_msat": 995073000,
                "scriptPubKey": "51209bb0a0fd0157c7ad14828495907833c026eea468b3d57803549e67eeb16c82f8"
              }
            ]
          },
          {
            "hash": "f50bfa3fa48914024e629368718820115e114d20e0a642912142a07b39afdc41",
            "rawtx": "0200000000010158f8ed147c87174737cbfdbb087f3fdab26c44707650a561f3ec96283eeb57fe0000000000fdffffff027268deec0000000016001491bd356030cd90b13612ba856a54296fa13f797d80841e0000000000160014d5acf852e488aa5fc1c22fb45006faa280efbb7a0247304402200fad2649597d20172fe4832318ccf89c5aadde72abd11f4601c77e5ce7d2dec102200e373172a17921f7280b1b699e1bb41b3f50dc5e9b94455e190b5712f2a202b30121032309c9697ee2291749cdbd722f74a4389f6add3156c78d6fe0ced9dce2e0375f4b000000",
            "blockheight": 113,
            "txindex": 1,
            "locktime": 75,
            "version": 2,
            "inputs": [
              {
                "txid": "fe57eb3e2896ecf361a5507670446cb2da3f7f08bbfdcb374717877c14edf858",
                "index": 0,
                "sequence": 4294967293
              }
            ],
            "outputs": [
              {
                "index": 0,
                "amount_msat": 3973998706000,
                "scriptPubKey": "001491bd356030cd90b13612ba856a54296fa13f797d"
              },
              {
                "index": 1,
                "amount_msat": 2000000000,
                "scriptPubKey": "0014d5acf852e488aa5fc1c22fb45006faa280efbb7a"
              }
            ]
          },
          {
            "hash": "91e5c779a3fe46deaf1ec1956c0fe42885c3a3e144735580076e22170fff4cd9",
            "rawtx": "0200000000010141dcaf397ba042219142a6e0204d115e112088716893624e021489a43ffa0bf50100000000fdffffff0240420f0000000000220020fce0a85d367c5c40f361d100038c7d1ff9e64f2af64be71b52e3302c1025be93012f0f0000000000225120cd671b1cdc043e2daa42345b622b21f40a908de7597e81157f7b3f8fec5b9bf502473044022007c4cae6fc184e1cc00422ee81996f6a6d0c2365ae54464e8b3c7d6819e8902e022003c5a32f0d8d40af4e776ce693ca3ddf50279f1d4c0a515183a50d67790a103d012103a21e0831a259e04ac8ec707cea558cc9d90a6cceec58d164008d430adeb884cc71000000",
            "blockheight": 114,
            "txindex": 1,
            "locktime": 113,
            "version": 2,
            "inputs": [
              {
                "txid": "f50bfa3fa48914024e629368718820115e114d20e0a642912142a07b39afdc41",
                "index": 1,
                "sequence": 4294967293
              }
            ],
            "outputs": [
              {
                "index": 0,
                "amount_msat": 1000000000,
                "scriptPubKey": "0020fce0a85d367c5c40f361d100038c7d1ff9e64f2af64be71b52e3302c1025be93"
              },
              {
                "index": 1,
                "amount_msat": 995073000,
                "scriptPubKey": "5120cd671b1cdc043e2daa42345b622b21f40a908de7597e81157f7b3f8fec5b9bf5"
              }
            ]
          },
          {
            "hash": "e47b1a5771ec16edf6b83192dd328ee166eedb242f0ac1d97343dfda336728cd",
            "rawtx": "02000000000101d94cff0f17226e0780557344e1a3c38528e40f6c95c11eafde46fea379c7e5910000000000ffffffff026b6f0700000000001600143e377b48b14df55eb4f0b71ad62ac69ea7a8644a3ac807000000000022512048e0db1f36c9696aaec1b62416f106bfe8d556bf0792ff8f40e79ccc06d15a1a04004730440220113c617f2fd904a6232abe097c4f98fce3ef62424187b7fe955fdf34d40d0a090220105bc776434ebb96bac514c956923ddb45b80864523779b82916c545ba2691500147304402204094b1b0fdca9ed8a517929f6c0e8963bfb7486719eaa16dbe5b4397118177400220420a93322938ab6ddda9a6aa38a94a5a3f076695f4cd51b84a323a6420959f7601475221020e55d5387c8b6e8c5fc7237fe8836c23a5946bede705b17a5139857a7b794d412103b17a20062f164e9aeaf7cdde40fe99c80f4fa261f59f709722814cda2135c54752ae00000000",
            "blockheight": 122,
            "txindex": 1,
            "locktime": 0,
            "version": 2,
            "inputs": [
              {
                "txid": "91e5c779a3fe46deaf1ec1956c0fe42885c3a3e144735580076e22170fff4cd9",
                "index": 0,
                "sequence": 4294967295
              }
            ],
            "outputs": [
              {
                "index": 0,
                "amount_msat": 487275000,
                "scriptPubKey": "00143e377b48b14df55eb4f0b71ad62ac69ea7a8644a"
              },
              {
                "index": 1,
                "amount_msat": 510010000,
                "scriptPubKey": "512048e0db1f36c9696aaec1b62416f106bfe8d556bf0792ff8f40e79ccc06d15a1a"
              }
            ]
          },
          {
            "hash": "4c74897b692da8bf4954316d22ac613b904c1fc8373399532f3c03330b6bb57f",
            "rawtx": "02000000000101d5d2d0eab568753cc65d4e5c130f0af40ce52b3e09e5a70102eeb97368c90a190000000000ffffffff02026e0700000000002251200f45bc0d48f0a17bfd7fd8dd7dd4ced31589b86b36ea27bc4855bb3811c4aed2eec8070000000000225120eddfdc0684845dac712b1f1f3df32583ccaa449417cf4f3419017bcb03fe64f7040047304402202128f66dfd31fe0f8058fe0270c8adf8c2c126f15db601541096e899503ffbea02203b6f777c60c48483cd6d3953e0aaa76f8eab1f6402bfc78785a629daea5bdd6b0147304402201e09cabc28678f4a14d954755b4274b362d4a501d0a9be82c8457ba95906c0f70220324d932ee56221c6f66665628ae82df34745b073fd9391845749fa537148c3e60147522102428a180ab8faac4ff429b8f3423a76e982891c03b79ca9c8a17c0aa076f5a34d210291d9e5ea60956c8c94ba8dec13c7cbd130d2efa3ebe1c2aff4f794011da7749652ae00000000",
            "blockheight": 122,
            "txindex": 2,
            "locktime": 0,
            "version": 2,
            "inputs": [
              {
                "txid": "190ac96873b9ee0201a7e5093e2be50cf40a0f135c4e5dc63c7568b5ead0d2d5",
                "index": 0,
                "sequence": 4294967295
              }
            ],
            "outputs": [
              {
                "index": 0,
                "amount_msat": 486914000,
                "scriptPubKey": "51200f45bc0d48f0a17bfd7fd8dd7dd4ced31589b86b36ea27bc4855bb3811c4aed2"
              },
              {
                "index": 1,
                "amount_msat": 510190000,
                "scriptPubKey": "5120eddfdc0684845dac712b1f1f3df32583ccaa449417cf4f3419017bcb03fe64f7"
              }
            ]
          },
          {
            "hash": "2068618bdc440e58c31d5fa3fa07c9fa6d3f07fa800644edc32b5d71245dc2cc",
            "rawtx": "020000000001026557c06929f09a739fc366df40e3015162463819150d1c6f65874d23170d3e930100000000fdffffff7fb56b0b33033c2f53993337c81f4c903b61ac226d315449bfa82d697b89744c0000000000fdffffff0240420f000000000022002089c65b2253d1654c17df3b873450f084d2e2c2f92be01832f3335e44a971026bfa41070000000000225120b83b6b7a6b050df2864b4d610b88ab33d29a1a78a096062914c071a4798990710140cedef8230dad9cc777d73b0e6a7708ef551699159afc2b51c8568d2e43764614fe7f2199712f806df1e3c6649588646ed19c0a55dd94cfd3f5d5a317aca8ace90140562976b3d73ba7d681104189b3cbb4de1cf4d7aca9e08a3f0b65b9d28ff8c93f7d94845a0f8fed97ff17b70fafcb0576f1b1b95c6bcbae6a9840133f7319e1137b000000",
            "blockheight": 124,
            "txindex": 1,
            "locktime": 123,
            "version": 2,
            "inputs": [
              {
                "txid": "933e0d17234d87656f1c0d15193846625101e340df66c39f739af02969c05765",
                "index": 1,
                "sequence": 4294967293
              },
              {
                "txid": "4c74897b692da8bf4954316d22ac613b904c1fc8373399532f3c03330b6bb57f",
                "index": 0,
                "sequence": 4294967293
              }
            ],
            "outputs": [
              {
                "index": 0,
                "amount_msat": 1000000000,
                "scriptPubKey": "002089c65b2253d1654c17df3b873450f084d2e2c2f92be01832f3335e44a971026b"
              },
              {
                "index": 1,
                "amount_msat": 475642000,
                "scriptPubKey": "5120b83b6b7a6b050df2864b4d610b88ab33d29a1a78a096062914c071a479899071"
              }
            ]
          },
          {
            "hash": "de54dc1d1dad60c7ed0de192acee21a53529c48bb6a0c20764a7afa116dfd226",
            "rawtx": "02000000000101c6371b1dfb85fde2e95fbe5c49f298d9dc7f6f0336a8c59be6f873b074cb55290000000000fdffffff0280841e000000000016001491a7bc4d0a312d503a120af07e76fb4c9f30f2d64bd982ec00000000160014b08ac9eca1e3f7e984cbfd6e70e20efef61cd9610247304402203e81847ba3f520c4d6291eba331ff337b0d68699373d6b4187280967c5097251022006ce2168e23f4e299e4ac53387558e208b3bfd7b776abd9d385fb87a1d0a761f012102fc2d7bf8bffbe6d03af63e9a93369885cc25d653c4a3197f2af243cd9b1b6bbe7c000000",
            "blockheight": 125,
            "txindex": 1,
            "locktime": 124,
            "version": 2,
            "inputs": [
              {
                "txid": "2955cb74b073f8e69bc5a836036f7fdcd998f2495cbe5fe9e2fd85fb1d1b37c6",
                "index": 0,
                "sequence": 4294967293
              }
            ],
            "outputs": [
              {
                "index": 0,
                "amount_msat": 2000000000,
                "scriptPubKey": "001491a7bc4d0a312d503a120af07e76fb4c9f30f2d6"
              },
              {
                "index": 1,
                "amount_msat": 3967998283000,
                "scriptPubKey": "0014b08ac9eca1e3f7e984cbfd6e70e20efef61cd961"
              }
            ]
          },
          {
            "hash": "93498fd7bba833480d3d050de826db87d885e08e89f2f47329574266eddd2f45",
            "rawtx": "0200000000010126d2df16a1afa76407c2a0b68bc42935a521eeac92e10dedc760ad1d1ddc54de0000000000fdffffff0240420f0000000000220020c0028cb98a9f9a83c83e01cb75999b857f91811a5e3c1255b18bb7a406ca49e7012f0f0000000000225120b6e5030f85b2037cf336dcde5c7c1f898bde94d5402c49221d6dcdc55a31a0970247304402203dd4e2429a9d0f68c5445bef9febed63bac852dbb873171b26e70f3330c196d802205edacf6eebcdf9b6f103c271e8b248c3a557aa264d1203f5ca272113da41b61001210364f790a43ed328fa42e37b59ae8dbbf5cdc94013ea1244fd9bf9bc0d55f933307d000000",
            "blockheight": 126,
            "txindex": 1,
            "locktime": 125,
            "version": 2,
            "inputs": [
              {
                "txid": "de54dc1d1dad60c7ed0de192acee21a53529c48bb6a0c20764a7afa116dfd226",
                "index": 0,
                "sequence": 4294967293
              }
            ],
            "outputs": [
              {
                "index": 0,
                "amount_msat": 1000000000,
                "scriptPubKey": "0020c0028cb98a9f9a83c83e01cb75999b857f91811a5e3c1255b18bb7a406ca49e7"
              },
              {
                "index": 1,
                "amount_msat": 995073000,
                "scriptPubKey": "5120b6e5030f85b2037cf336dcde5c7c1f898bde94d5402c49221d6dcdc55a31a097"
              }
            ]
          },
          {
            "hash": "3d91b248f1fe9b911647a32ae3713a8be23936a33ce2a7d10068ffe940bc2076",
            "rawtx": "0200000000010185a02413ad6f42718d184d44d081a51d1bcf5a4fb8ec912cf8adcd6d45c43b7e0000000000fdffffff085834080000000000225120bac2b59dbcd6b4cf054550c9748f7fe1b0ce22dac3344b44c305407246762fa3e8030000000000002251200958deebdc8ae01f4af2c2a1ab05423e320aba49863d0e4376bd4a1cd945a091e803000000000000160014c13df98a09f6287de37be00b4da94e6651384200e8030000000000001600142b72a64cbf1e9828e237b32056bf26638ab27942e803000000000000160014a1403aa7de6a7a79e89945f6d92f91297f79d724e8030000000000001600140f6e59454dbfd0e744a34326d5925c17fa63ed36e803000000000000160014e4e7895a2cdf6ce779f5c6202c99de3e3b3b36e8e8030000000000002251206da3edbbf110189ea0eb7c95e18d4eace1a75d18c557813b55745bb862cecb7a0247304402204454bd12a245f80032a8d9a7f2baadb27276cef681f3959704782db8410ecbe102207ad61a7e342689db8e6752ebe8af6621529dec31c680f70dd336bd1c70708711012103c5d701f1940388572500a95225afa67b50ff03c38b9c9b33173e2f9d17d5a54a8c000000",
            "blockheight": 141,
            "txindex": 2,
            "locktime": 140,
            "version": 2,
            "inputs": [
              {
                "txid": "7e3bc4456dcdadf82c91ecb84f5acf1b1da581d0444d188d71426fad1324a085",
                "index": 0,
                "sequence": 4294967293
              }
            ],
            "outputs": [
              {
                "index": 0,
                "amount_msat": 537688000,
                "scriptPubKey": "5120bac2b59dbcd6b4cf054550c9748f7fe1b0ce22dac3344b44c305407246762fa3"
              },
              {
                "index": 1,
                "amount_msat": 1000000,
                "scriptPubKey": "51200958deebdc8ae01f4af2c2a1ab05423e320aba49863d0e4376bd4a1cd945a091"
              },
              {
                "index": 2,
                "amount_msat": 1000000,
                "scriptPubKey": "0014c13df98a09f6287de37be00b4da94e6651384200"
              },
              {
                "index": 3,
                "amount_msat": 1000000,
                "scriptPubKey": "00142b72a64cbf1e9828e237b32056bf26638ab27942"
              },
              {
                "index": 4,
                "amount_msat": 1000000,
                "scriptPubKey": "0014a1403aa7de6a7a79e89945f6d92f91297f79d724"
              },
              {
                "index": 5,
                "amount_msat": 1000000,
                "scriptPubKey": "00140f6e59454dbfd0e744a34326d5925c17fa63ed36"
              },
              {
                "index": 6,
                "amount_msat": 1000000,
                "scriptPubKey": "0014e4e7895a2cdf6ce779f5c6202c99de3e3b3b36e8"
              },
              {
                "index": 7,
                "amount_msat": 1000000,
                "scriptPubKey": "51206da3edbbf110189ea0eb7c95e18d4eace1a75d18c557813b55745bb862cecb7a"
              }
            ]
          },
          {
            "hash": "7a40791b5fd7fbb28815e5ea222c8cac3a920efd90481e9931b2e21382a8971f",
            "rawtx": "02000000000102452fdded6642572973f4f2898ee085d887db26e80d053d0d4833a8bbd78f49930100000000fdffffff7fb56b0b33033c2f53993337c81f4c903b61ac226d315449bfa82d697b89744c0100000000fdffffff0240420f00000000002200202bdf62cf77ca8d331ee03e40d1eb7fa14bb8078c3427d7714f271e37468645e8e69c0700000000002251205f5ccf17471f681b995a3eadb89503818769d6be3f30c72584b60200a525ac3001405acb68c814ed085469507a93acd33239ff4811522abb2b1698b27325ed958cfa1dae552cc79c558a25049e9ed94cf2c577ce52a90c1d3f51a532c6ba85e4414f0140e5ed026ce2041af7dbc24bfba2698e7547fa06c0dfdf3d1368a623c6e3b5f05edca747d64c99477296514f7eef69ae0dd46f7eab3275bbb57a7a6d20d3ba4bd79a000000",
            "blockheight": 156,
            "txindex": 2,
            "locktime": 154,
            "version": 2,
            "inputs": [
              {
                "txid": "93498fd7bba833480d3d050de826db87d885e08e89f2f47329574266eddd2f45",
                "index": 1,
                "sequence": 4294967293
              },
              {
                "txid": "4c74897b692da8bf4954316d22ac613b904c1fc8373399532f3c03330b6bb57f",
                "index": 1,
                "sequence": 4294967293
              }
            ],
            "outputs": [
              {
                "index": 0,
                "amount_msat": 1000000000,
                "scriptPubKey": "00202bdf62cf77ca8d331ee03e40d1eb7fa14bb8078c3427d7714f271e37468645e8"
              },
              {
                "index": 1,
                "amount_msat": 498918000,
                "scriptPubKey": "51205f5ccf17471f681b995a3eadb89503818769d6be3f30c72584b60200a525ac30"
              }
            ]
          },
          {
            "hash": "da30fef0436e47c3e7dc2f4799dbd7fa829dad17a8a6ffe215d730ac4176744f",
            "rawtx": "020000000001011f97a88213e2b231991e4890fd0e923aac8c2c22eae51588b2fbd75f1b79407a0000000000ffffffff0176390f0000000000225120169e0f8fd41962da8f275621cc712e75fcc81ec1266235ecaf0e94efbf7d860704004730440220321361963c6653a357206b428c40db9357d1f50820e7dd2f24e33d1874d0efab022060f1dadb00e21d20d05b390a44c4c7cf965f8f39a2f0df43b7f937e9d9c6c5a70147304402201d136bc9a23df424085bd4143d9695926ce58e31f1028bbd5fc845168831804102204d43e9bcc73b4ddc6bdc0f51f4e7add2efc9995d98b8d14fbd96549250948a6a01475221024778e1278c9a70ef064e03285edb8281e95473a8f8900823e5dd9a0f4daa40af2103d02199675ce9e196c5aba59f666819662b0799a35291df2c10060752d623fa6552ae00000000",
            "blockheight": 156,
            "txindex": 4,
            "locktime": 0,
            "version": 2,
            "inputs": [
              {
                "txid": "7a40791b5fd7fbb28815e5ea222c8cac3a920efd90481e9931b2e21382a8971f",
                "index": 0,
                "sequence": 4294967295
              }
            ],
            "outputs": [
              {
                "index": 0,
                "amount_msat": 997750000,
                "scriptPubKey": "5120169e0f8fd41962da8f275621cc712e75fcc81ec1266235ecaf0e94efbf7d8607"
              }
            ]
          },
          {
            "hash": "286d8d94402681626027293d94cc6c9e74b4d310eeab29d8573da29a525e3d58",
            "rawtx": "020000000001077620bc40e9ff6800d1a7e23ca33639e28b3a71e32aa34716919bfef148b2913d0200000000fdffffff7620bc40e9ff6800d1a7e23ca33639e28b3a71e32aa34716919bfef148b2913d0600000000fdffffff7620bc40e9ff6800d1a7e23ca33639e28b3a71e32aa34716919bfef148b2913d0700000000fdffffff82d89a9c1bbcfc72894dc9b99af5932f88431867caea602b49076cc70aa13dd40100000000fdffffffdcad369852fc4242235b477812b03a304fa1d00accc6e092d1b4f33dd99fd2290000000000fdfffffff7810f051a41508c06e13b52eca48e251a89d091f82106670a6fd9b417b311a40100000000fdfffffff7810f051a41508c06e13b52eca48e251a89d091f82106670a6fd9b417b311a40200000000fdffffff04a8610000000000002251201b51b2231176f1ad2f205f7be722d3a4549d2a9550281536d21cbc5e018ed48a307500000000000022002089df8e73118830cb1f909727e62db20c179bc683b1412179416a9c7fd3b0f078204e000000000000220020c78f7612091014be627511d7759daf13553b15fcda2b8fb4a9d878afb3496c570aa903060000000022002006addd4c05131a5d7bb40d0ffc74d00e648d908d5765b7498762348042eb66bf02473044022052c3a355287efdfa4e8bf37e73262d190a97b4a670944f2525fd944ca58cf9e102206b49c891286fd064167976291ff055e1db0a3adbd18ae20fca2f08a2bce237c80121028ebd2158aec94a0dcdba681f97dd634c5eacbde5b92721bf7724fe072e0199a80247304402205058f09d34e2699a23194fa65991fef8050d7b5583bf2821e2307c36716bf71702204f058bbf83c8203b00fc1d98c16ba29ceaf8bd00f5ff13715238cdc20bfc0b58012103c93e0fee95a1c62556d78bab9591b8c3178ad669b94587710314293c70d7c6d801407e514a156427ab3e9a018a76c2a242092bf34bcf40708efba38e9eac6a92c13a82e430a324bf130e48ea7d12a5e0b1caf8956c1385748e472bd6dcd0bf577b9502473044022027e1fc0e533b2207d14be02a586c9003f38cbbeda42b2969fb26d86a9e1652f402205bf995c58656a30299136a74d48e4777dea8adb12f8638220a7c57cfa00d1f18012103c0fa2ec66a8e1ba14f7b282fdac52d0004eb3051d20904730ef163126e116f6a014032d50a0d103d74d134948411c02f549be28741ed056f908a4ac5a1ebfcde2ca727983233c8161174d1af6018b02e72731ccfc1951336525a63dbc31f2b204cde02473044022041bd69bc05d54814c211ed39d032ce15e3009a640119346a8c3d53a6c81737d4022012ffe80fdbc2dc04dc8ad81166af662486c64a5595f4556113d166483858ad96012102d89a2b5862744b39a15a6ab316b3e1aab0ebc1d63c610c17015ba1a9f8568fd40247304402205aed060f7f912e778b4aaedc735c2349265e7f7bc5965eb3b9452bca6117869502203a58e0663e45c7ef4f2f4543373b4bec914548f14c405822c99ccd4919d338cd01210370eb10c2b3f30d1481ce0802a97c1345ca927cac5637831214f4b431436e57c59c000000",
            "blockheight": 157,
            "txindex": 1,
            "locktime": 156,
            "version": 2,
            "inputs": [
              {
                "txid": "3d91b248f1fe9b911647a32ae3713a8be23936a33ce2a7d10068ffe940bc2076",
                "index": 2,
                "sequence": 4294967293
              },
              {
                "txid": "3d91b248f1fe9b911647a32ae3713a8be23936a33ce2a7d10068ffe940bc2076",
                "index": 6,
                "sequence": 4294967293
              },
              {
                "txid": "3d91b248f1fe9b911647a32ae3713a8be23936a33ce2a7d10068ffe940bc2076",
                "index": 7,
                "sequence": 4294967293
              },
              {
                "txid": "d43da10ac76c07492b60eaca671843882f93f59ab9c94d8972fcbc1b9c9ad882",
                "index": 1,
                "sequence": 4294967293
              },
              {
                "txid": "29d29fd93df3b4d192e0c6cc0ad0a14f303ab01278475b234242fc529836addc",
                "index": 0,
                "sequence": 4294967293
              },
              {
                "txid": "a411b317b4d96f0a670621f891d0891a258ea4ec523be1068c50411a050f81f7",
                "index": 1,
                "sequence": 4294967293
              },
              {
                "txid": "a411b317b4d96f0a670621f891d0891a258ea4ec523be1068c50411a050f81f7",
                "index": 2,
                "sequence": 4294967293
              }
            ],
            "outputs": [
              {
                "index": 0,
                "amount_msat": 25000000,
                "scriptPubKey": "51201b51b2231176f1ad2f205f7be722d3a4549d2a9550281536d21cbc5e018ed48a"
              },
              {
                "index": 1,
                "amount_msat": 30000000,
                "scriptPubKey": "002089df8e73118830cb1f909727e62db20c179bc683b1412179416a9c7fd3b0f078"
              },
              {
                "index": 2,
                "amount_msat": 20000000,
                "scriptPubKey": "0020c78f7612091014be627511d7759daf13553b15fcda2b8fb4a9d878afb3496c57"
              },
              {
                "index": 3,
                "amount_msat": 100903178000,
                "scriptPubKey": "002006addd4c05131a5d7bb40d0ffc74d00e648d908d5765b7498762348042eb66bf"
              }
            ]
          },
          {
            "hash": "ff8bd312ec00657083e09d2aa435505b3c8c92a9918d54ff2257bc2a9fd354b6",
            "rawtx": "02000000000101583d5e529aa23d57d829abee10d3b4749e6ccc943d29276062812640948d6d280200000000ffffffff0156450000000000002251207df7b21b2b0653344bc7d240d4e70295002696c14150f8fad6e3bd88c0d8520b040047304402203687fa1b4ee1033be19983e59f68b733e78d61b25292b6ecf31b3bf6c067e500022052bcd5c95200e7213838bebbd4750f3a7389b4189d9c60895cf9d923e054e5f10147304402205ba36aef45a0d57d37105e5d05ed81d998ab2600a818264881500437cc6f65ee02207f648e28ffb83a21d64b79853bcf2deb24497392c66d04837aedea3f7bc265940147522103e52cb6f368d39911714975c31f190723d9af971a899045c1c794b07a814d33f32103f377c55b6893fbfc33b9b68e43f5b84441bd5836bdba2893f23f8edafc5c4b8952ae00000000",
            "blockheight": 157,
            "txindex": 3,
            "locktime": 0,
            "version": 2,
            "inputs": [
              {
                "txid": "286d8d94402681626027293d94cc6c9e74b4d310eeab29d8573da29a525e3d58",
                "index": 2,
                "sequence": 4294967295
              }
            ],
            "outputs": [
              {
                "index": 0,
                "amount_msat": 17750000,
                "scriptPubKey": "51207df7b21b2b0653344bc7d240d4e70295002696c14150f8fad6e3bd88c0d8520b"
              }
            ]
          }
        ]
      }
    }
  ]
}
